S01500004C65645F426C696E6B5F4B3334342E73313936
S214450000A55AA55A0100000000000000000845005A
S21445001000000000000845000000000000084500FC
S2144500200000000000000000000000000000000086
S2144500300000000000000000000000000000000076
S2144500400000000000000000000000000000000066
S2144500500000000000000000000000000000000056
S21445080000000220210C4500995845009B5845009C
S2144508109D5845009F584500A158450000000000DA
S214450820000000000000000000000000F9494500F7
S214450830A558450000000000C14A4500254B450027
S214450840AB584500AB584500AB584500AB5845003E
S214450850AB584500AB584500AB584500AB5845002E
S214450860AB584500AB584500AB584500AB5845001E
S214450870AB584500AB584500AB584500AB5845000E
S214450C00AB584500AB58450000BF00BF00BF00BF0E
S214450C10FFF7FABF000000000000000000000000DB
S214450C2072B64FF000004FF000014FF000024FF053
S214450C3000034FF000044FF000054FF000064FF05C
S214450C4000074FF0640001380028FCDC5048016876
S214450C504FF0807201EA020100291CD14D48016817
S214450C604FF0807241EA020101604B4801684FF03F
S214450C70010241EA02010160484845F6F02101605B
S214450C804AF20F510160424801684FF0807201EA0E
S214450C9002010029F7D042484249016042490868A6
S214450CA020F0040040F0010008604049086820F044
S214450CB0040040F0010008603D4880F308883D4840
S214450CC001684FF00000814200D02DE03A484CF2D2
S214450CD0205101604DF628110160384838490160B9
S214450CE00AE038484CF2205101604DF62811016063
S214450CF0354833490160FFE73448002814D0344866
S214450D0001684FF0010201EA0201002902D031498B
S214450D10314A01E03149304A521A013A04DD002091
S214450D20002309C1083AFCDA2D48002809D02D4988
S214450D302D4A521A013A04DD0020002309C1083A1B
S214450D40FCDA2A48002809D029492A4A521A013A83
S214450D5004DD0020002309C1083AFCDA264800686D
S214450D604FF05A318842F9D0124801684FF00000DA
S214450D70814202D004F00AFE01E004F0C1FD04F011
S214450D8035FE62B604F030FE00F038F800BFFEE7E8
S214450D9010C32D4030C32D4004C32D4000C02D4008
S214450DA008ED00E00000002094EF00E090EF00E042
S214450DB0000002200400264010002740000027407F
S214450DC0400000FF10C0464000C0464001000000FD
S214450DD000C028400000402000404420000040203D
S214450DE00100000000000020000002200100000075
S214450DF00000000000000100F021402010B5144816
S214450E00144C05F007FB1449032007F0B5FD23787D
S214450E1003F0FF0293B1012A07D16188606807F0A5
S214450E2096FC2189E06807F0A1FC237883F001034E
S214450E3023706FF07F43013BFDD1E8E7618860682A
S214450E4007F094FC2189E06807F081FCEDE700BFD8
S214450E504C90450054234020188E450010B51C2064
S214450E6003F014FF044620B1002340F8043B00F08D
S214450E70CDF9204610BD2DE9F047DDF820900C460B
S214450E8017469846064650B94FF0100372B683F398
S214450E901188BFF36F8FBFF34F8F62B6FEE711F031
S214450EA07F4A0AD04FF0100372B683F31188BFF31A
S214450EB06F8FBFF34F8F62B6FEE751B94FF0100301
S214450EC072B683F31188BFF36F8FBFF34F8F62B649
S214450ED0FEE702F051FE68B9B9F1000F0AD04FF0AF
S214450EE0100372B683F31188BFF36F8FBFF34F8F2E
S214450EF062B6FEE702F08EF8356804EA0503B8F1F7
S214450F00000F15D1B3B9B9F1000F0FD0002F0CBFA4
S214450F1000214FF08071B8F1000F01D041F080619B
S214450F2000254A462143301D02F0ACFBCA4605E083
S214450F309C42E8D117B125EA0403336002F03CF938
S214450F40BAF1000F1CD048B94FF0E0234FF080525D
S214450F50C3F8042DBFF34F8FBFF36F8F02F06CFFBE
S214450F60830105460AD403F071FD356804EA050396
S214450F70B8F1000F07D143B903F08CFD25F07F4546
S214450F802846BDE8F0879C42F6D1002FF4D025EAE6
S214450F9004043460F0E770B50C46054650B94FF08A
S214450FA0100372B683F31188BFF36F8FBFF34F8F6D
S214450FB062B6FEE711F07F4F0AD04FF0100372B6C7
S214450FC083F31188BFF36F8FBFF34F8F62B6FEE78B
S214450FD003F03CFD2E6826EA04042C6003F05AFD17
S214450FE0304670BDFFF7D7BF0A4600230146014885
S214450FF003F072BCE50F4500EFF311834FF0100286
S21445100072B682F31188BFF36F8FBFF34F8F62B608
S214451010006883F3118870472DE9F0410D46044674
S21445102050B94FF0100372B683F31188BFF36F8F34
S214451030BFF34F8F62B6FEE711F07F460AD04FF0FA
S214451040100372B683F31188BFF36F8FBFF34F8FCC
S21445105062B6FEE700F10C0701F0DCFF2168206967
S214451060294321608742216807D121EA060121608C
S21445107002F0A2F82068BDE8F081D0E9002822F009
S2144510807F4312F0806F03EA010502D11DB9404641
S214451090E8E7AB42FBD1D20141F0007148BF1E43A1
S2144510A002F0C0FBF3E712F07F4F2DE9F04107460B
S2144510B00C46164698460AD04FF0100372B683F390
S2144510C01188BFF36F8FBFF34F8F62B6FEE752B9F5
S2144510D04FF0100372B683F31188BFF36F8FBFF3DB
S2144510E04F8F62B6FEE702F047FD68B9B8F1000FCC
S2144510F00AD04FF0100372B683F31188BFF36F8F93
S214451100BFF34F8F62B6FEE701F084FF3D68214688
S21445111038462C43FFF780FF36EA04032AD13B685E
S2144511204FF0000823EA06033B6002F045F8B8F1A5
S214451130000F1CD048B94FF0E0234FF08052C3F85B
S214451140042DBFF34F8FBFF36F8F02F075FE8301FB
S21445115004460AD403F07AFC3C6836EA040304BF26
S21445116024EA06063E6003F095FC24F07F442046BC
S214451170BDE8F081B8F1000F07D0424646F0A061C1
S214451180381D002402F07EFACFE73C68CDE7FFF72E
S21445119043BF38B5044650B94FF0100372B683F3D3
S2144511A01188BFF36F8FBFF34F8F62B6FEE704F12A
S2144511B00C0501F02FFF636833B901F0FDFF2046AB
S2144511C0BDE8384003F08CBD2069A8420AD14FF0EF
S2144511D0100372B683F31188BFF36F8FBFF34F8F3B
S2144511E062B6FEE74FF0007102F01CFBE3E71346DC
S2144511F00A460146014803F06FBB00BF8F11450004
S21445120000B1806970478161704700BF00F10803EF
S2144512104FF0FF3243600361C0E9022300230360B9
S214451220704700230361704743689A684B608A603D
S2144512309A68516099600368086101330360704796
S21445124030B50C68631C0AD103695A684A609160D8
S2144512508B605960036808610133036030BD00F157
S2144512600802134652681568A542FAD9EDE70369A0
S214451270D0E901128A6051605968814208BF5A60B8
S214451280002202611A68013A1A6018687047000021
S21445129010B5044603F0DAFBA46B03F0FBFBB4FA87
S2144512A084F0400910BDF8B51546026C0446866BB9
S2144512B052B9076847BB806802F0B6FC0546A7608A
S2144512C001362846A663F8BD65B9406803F0A8FD13
S2144512D06368226C1344A26893426360F0D3236824
S2144512E06360EDE7C06803F09BFD226CE3685142FE
S2144512F09B1A22689342E3603EBFA3685B18E3608F
S214451300022D01D116B1013E0025D9E73546D7E76E
S214451310034608461A6C10B462B1DC6899681444F2
S2144513208C42DC605DF8044B24BF1968D960D968E7
S21445133003F076BD5DF8044B704770B5044603F080
S21445134085FB94F8455004F124066DB2002D14DC57
S214451350FF2304F1100684F8453003F09BFB03F0A9
S21445136075FB94F844506DB2002D12DCFF2384F8CB
S2144513704430BDE8704003F08DBB636A002BE7D070
S214451380304602F0E9F908B102F01AFB013D6DB2AC
S214451390DCE72369002BE9D0304602F0DDF908B1D9
S2144513A002F00EFB013D6DB2DEE770B50E46044613
S2144513B050B94FF0100372B683F31188BFF36F8FA1
S2144513C0BFF34F8F62B6FEE7C56BA5B3036CA3FBB1
S2144513D0053585BB03F03AFB2268A5636260D4E910
S2144513E00F314B43D0185B1A1344A060E360FF23CC
S2144513F084F8443084F84530A6B9236973B104F1BE
S214451400100002F0A9F948B14FF0E0234FF08052A2
S214451410C3F8042DBFF34F8FBFF36F8F03F03AFB2E
S214451420012070BD04F11000FFF7F0FE04F1240022
S214451430FFF7ECFEF2E74FF0100372B683F3118820
S214451440BFF36F8FBFF34F8F62B6FEE7F8B50D4615
S21445145017460646D8B1A0FB0123C3B9484310F149
S214451460510F14D8503003F011FC044658B165B1FD
S21445147000F15003012120462360C4E90F65FFF7BC
S21445148094FF84F84C702046F8BD0346F2E74FF0CB
S214451490100372B683F31188BFF36F8FBFF34F8F78
S2144514A062B6FEE710B5044650B94FF0100372B663
S2144514B083F31188BFF36F8FBFF34F8F62B6FEE796
S2144514C003F0C4FA236823B9A46803F0E3FA204678
S2144514D010BD0024F9E750B94FF0100372B683F3F8
S2144514E01188BFF36F8FBFF34F8F62B6FEE7036871
S2144514F00BB9806870470020704710B50C4640B160
S214451500884206D302220021FFF7A0FF00B184637C
S21445151010BD4FF0100372B683F31188BFF36F8F7B
S214451520BFF34F8F62B6FEE72DE9F04385B0884698
S2144515301F460446019250B94FF0100372B683F326
S2144515401188BFF36F8FBFF34F8F62B6FEE761B961
S214451550036C53B14FF0100372B683F31188BFF393
S2144515606F8FBFF34F8F62B6FEE7022F0DD1E36B49
S214451570012B0AD04FF0100372B683F31188BFF3E0
S2144515806F8FBFF34F8F62B6FEE702F0F5FA064659
S21445159060B9019B5BB14FF0100372B683F31188B7
S2144515A0BFF36F8FBFF34F8F62B6FEE700264FF04F
S2144515B0000937E0019D1DB903F06CFA002052E0A2
S2144515C016B902A802F0AAF903F064FA01F022FD62
S2144515D003F03CFA94F84430FF2B01D184F844904C
S2144515E094F84530FF2B01D184F8459003F052FA24
S2144515F001A902A802F09CF900284AD103F026FA70
S214451600A26BE36B9A4231D103F044FA019904F197
S214451610100002F01BF82046FFF78FFE01F0CCFDC8
S21445162060B3012603F012FAA26BE36B9A4201D32C
S214451630022FBFD13A4641462046FFF734FE636A3D
S2144516401BB104F1240002F087F848B14FF0E023BF
S2144516504FF08052C3F8042DBFF34F8FBFF36F8F03
S21445166003F018FA012005B0BDE8F08303F012FA3E
S2144516702046FFF762FE01F09FFDD2E74FF0E023DC
S2144516804FF08052C3F8042DBFF34F8FBFF36F8FD3
S214451690C7E72046FFF751FE01F08EFD8EE702466E
S2144516A00021012010B5FFF7D1FE044638B10023CE
S2144516B01A46194683600360C360FFF735FF204628
S2144516C010BD38B5044650B94FF0100372B683F3D3
S2144516D01188BFF36F8FBFF34F8F62B6FEE78568FD
S2144516E002F044FA85420AD1E368013BE36023B938
S2144516F01A4619462046FFF717FF012000E000204E
S21445170038BD2DE9F843894690461F46044650B9EC
S2144517104FF0100372B683F31188BFF36F8FBFF394
S2144517204F8F62B6FEE761B9036C53B14FF01003B5
S21445173072B683F31188BFF36F8FBFF34F8F62B6D0
S214451740FEE7022F0DD1E36B012B0AD04FF01003B5
S21445175072B683F31188BFF36F8FBFF34F8F62B6B0
S214451760FEE703F065FAEFF311864FF0100372B605
S21445177083F31188BFF36F8FBFF34F8F62B6A26BAB
S214451780E36B9A4201D3022F34D194F845503A463A
S214451790494620466DB2A36BFFF785FD6B1C13D1FA
S2144517A0636A0BB901200BE004F1240001F0D4FF75
S2144517B00028F7D0B8F1000FF4D00120C8F8000093
S2144517C086F31188BDE8F88301F03CFC8542E9D2F2
S2144517D07F2D0AD14FF0100372B683F31188BFF3FD
S2144517E06F8FBFF34F8F62B6FEE701356DB284F853
S2144517F04550D7E70020E3E7F8B50E46044650B90E
S2144518004FF0100372B683F31188BFF36F8FBFF3A3
S2144518104F8F62B6FEE7036C53B14FF0100372B6B6
S21445182083F31188BFF36F8FBFF34F8F62B6FEE722
S214451830036863B9836853B14FF0100372B683F3F8
S2144518401188BFF36F8FBFF34F8F62B6FEE703F085
S214451850EFF9EFF311874FF0100372B683F3118853
S214451860BFF36F8FBFF34F8F62B6A36BE26B9A429F
S2144518702DD994F845200133FF2A55B2A36310D1DC
S214451880636A0BB9012009E004F1240001F064FF06
S2144518900028F7D0002EF5D00120306087F3118858
S2144518A0F8BD01F0CFFB8542ECD27F2D0AD14FF033
S2144518B0100372B683F31188BFF36F8FBFF34F8F54
S2144518C062B6FEE701356DB284F84550DAE700208A
S2144518D0E4E72DE9FF410F460446019250B94FF023
S2144518E0100372B683F31188BFF36F8FBFF34F8F24
S2144518F062B6FEE761B9036C53B14FF0100372B69A
S21445190083F31188BFF36F8FBFF34F8F62B6FEE741
S21445191002F032F9064660B9019B5BB14FF0100301
S21445192072B683F31188BFF36F8FBFF34F8F62B6DE
S214451930FEE700264FF000083DE0019D1DB903F087
S214451940A9F8002056E016B902A801F0E7FF03F013
S214451950A1F801F05FFB03F079F894F84430FF2BCB
S21445196001D184F8448094F84530FF2B01D184F8A2
S214451970458003F08FF801A902A801F0D9FF002899
S21445198041D12046FFF784FCB8B3019904F1240001
S21445199001F05CFE2046FFF7D0FC01F00DFC48B98F
S2144519A04FF0E0234FF08052C3F8042DBFF34F8F1E
S2144519B0BFF36F8F012603F049F8A56B002DBCD009
S2144519C0013D39462046FFF7A3FCA563236973B15D
S2144519D004F1100001F0C0FE48B14FF0E0234FF08F
S2144519E08052C3F8042DBFF34F8FBFF36F8F03F0BC
S2144519F051F8012004B0BDE8F0812046FFF79DFC74
S214451A0001F0DAFBD6E72046FFF797FC01F0D4FB5A
S214451A102046FFF73DFC0028CCD092E72DE9FF4154
S214451A200446019150B94FF0100372B683F31188FE
S214451A30BFF36F8FBFF34F8F62B6FEE7056C55B1A8
S214451A404FF0100372B683F31188BFF36F8FBFF361
S214451A504F8F62B6FEE702F08FF8064660B9019BE7
S214451A6073B14FF0100372B683F31188BFF36F8FCF
S214451A70BFF34F8F62B6FEE72E464FF000084AE0AA
S214451A800546FAE7019F1FB9002503F003F862E013
S214451A9016B902A801F042FF02F0FCFF01F0BAFABF
S214451AA002F0D4FF94F84430FF2B01D184F84480EB
S214451AB094F84530FF2B01D184F8458002F0EAFFC3
S214451AC001A902A801F034FF00284ED12046FFF7B1
S214451AD0DFFB002843D023683BB902F0B7FFA06878
S214451AE002F05AF8054602F0D5FF019904F12400A4
S214451AF001F0ACFD2046FFF720FC01F05DFB48B940
S214451B004FF0E0234FF08052C3F8042DBFF34F8FBC
S214451B10BFF36F8F012602F099FFA36B002BB1D060
S214451B20013BA363236813B902F092F9A0602369C9
S214451B3073B104F1100001F00FFE48B14FF0E023F9
S214451B404FF08052C3F8042DBFF34F8FBFF36F8F0E
S214451B50012502F09FFF284604B0BDE8F0812046E7
S214451B60FFF7EBFB01F028FBD4E72046FFF7E5FB44
S214451B7001F022FB2046FFF78BFB0028CAD0002D3C
S214451B80E9D002F063FF616A19B1236B1968C1F1A8
S214451B900501A06802F096F876E737B5044650B9D1
S214451BA04FF0100372B683F31188BFF36F8FBFF300
S214451BB04F8F62B6FEE78568019101F0D7FF8542F3
S214451BC0019905D1E36801200133E36003B030BDD8
S214451BD02046FFF723FF0028F8D0E3680133E3608B
S214451BE0F4E72DE9FF410F460446019250B94FF000
S214451BF0100372B683F31188BFF36F8FBFF34F8F11
S214451C0062B6FEE761B9036C53B14FF0100372B686
S214451C1083F31188BFF36F8FBFF34F8F62B6FEE72E
S214451C2001F0AAFF064660B9019B5BB14FF0100371
S214451C3072B683F31188BFF36F8FBFF34F8F62B6CB
S214451C40FEE700264FF000083DE0019D1DB902F075
S214451C5021FF002056E016B902A801F05FFE02F00B
S214451C6019FF01F0D7F902F0F1FE94F84430FF2B46
S214451C7001D184F8448094F84530FF2B01D184F88F
S214451C80458002F007FF01A902A801F051FE002891
S214451C9041D12046FFF7FCFAB8B3019904F1240078
S214451CA001F0D4FC2046FFF748FB01F085FA48B919
S214451CB04FF0E0234FF08052C3F8042DBFF34F8F0B
S214451CC0BFF36F8F012602F0C1FEA36B002BBCD07D
S214451CD039462046E568FFF71BFB636AE56073B146
S214451CE004F1240001F038FD48B14FF0E0234FF0F1
S214451CF08052C3F8042DBFF34F8FBFF36F8F02F0AA
S214451D00C9FE012004B0BDE8F0812046FFF715FB6B
S214451D1001F052FAD6E72046FFF70FFB01F04CFAE2
S214451D202046FFF7B5FA0028CCD092E72DE9F843D0
S214451D3089469046054650B94FF0100372B683F370
S214451D401188BFF36F8FBFF34F8F62B6FEE761B959
S214451D50036C53B14FF0100372B683F31188BFF38B
S214451D606F8FBFF34F8F62B6FEE702F061FFEFF36A
S214451D7011874FF0100372B683F31188BFF36F8F48
S214451D80BFF34F8F62B6AC6B002C34D095F84460E9
S214451D9049462846013C76B2FFF7BAFAAC63731C4F
S214451DA013D12B690BB901200BE005F1100001F0AA
S214451DB0D3FC0028F7D0B8F1000FF4D00120C8F8BE
S214451DC0000087F31188BDE8F88301F03BF98642A9
S214451DD0E9D27F2E0AD14FF0100372B683F31188ED
S214451DE0BFF36F8FBFF34F8F62B6FEE7013676B20D
S214451DF085F84460D7E72046E3E7F8B50D46044640
S214451E0050B94FF0100372B683F31188BFF36F8F46
S214451E10BFF34F8F62B6FEE7036C59B95BB14FF01F
S214451E20100372B683F31188BFF36F8FBFF34F8FDE
S214451E3062B6FEE753B94FF0100372B683F31188C6
S214451E40BFF36F8FBFF34F8F62B6FEE702F0F0FE2B
S214451E50EFF311864FF0100372B683F31188BFF384
S214451E606F8FBFF34F8F62B6A06B30B120462946C1
S214451E70E768FFF74DFA0120E76086F31188F8BD5D
S214451E8013B5044650B94FF0100372B683F3118864
S214451E90BFF36F8FBFF34F8F62B6FEE702F0D6FDF6
S214451EA0A06B019002F0F6FD019802B010BD13B587
S214451EB0044650B94FF0100372B683F31188BFF34A
S214451EC06F8FBFF34F8F62B6FEE702F0BFFDA36B81
S214451ED0E06BC01A019002F0DDFD019802B010BD1E
S214451EE050B94FF0100372B683F31188BFF36F8F66
S214451EF0BFF34F8F62B6FEE7806B7047806C7047C6
S214451F008164704790F84C00704750B94FF0100305
S214451F1072B683F31188BFF36F8FBFF34F8F62B6E8
S214451F20FEE7806BB0FA80F04009704750B94FF035
S214451F30100372B683F31188BFF36F8FBFF34F8FCD
S214451F4062B6FEE7836BC06BC31A5842584170476A
S214451F5010B550B94FF0100372B683F31188BFF32E
S214451F606F8FBFF34F8F62B6FEE7B1B10C4A536829
S214451F7098420DD01368D468002B0CBF1346002337
S214451F80A0420BD03BB993683BB902F1080302E087
S214451F90002302EBC303C3E9001010BD0123F8E795
S214451FA00000402040B10D4B5A6890420FD0DA6889
S214451FB0904210D0002070474FF0100372B683F35E
S214451FC01188BFF36F8FBFF34F8F62B6FEE70022CF
S214451FD053F8320070470122FAE700BF0000402060
S214451FE040B10E4B5A6890420FD0DA68904213D1F2
S214451FF001220BE04FF0100372B683F31188BFF34E
S2144520006F8FBFF34F8F62B6FEE70022002143F87D
S214452010321003EBC2035960704700BF00004020F2
S21445202008B550B94FF0100372B683F31188BFF365
S2144520306F8FBFF34F8F62B6FEE7FFF7D1FFBDE860
S214452040084002F04DBE70B504460D46164602F0F1
S214452050FDFC94F84430FF2B02D1002384F844302D
S21445206094F84530FF2B02D1002384F8453002F022
S21445207011FDA36B2BB93246294604F1240001F025
S2144520803BFB2046BDE87040FFF757B9826843687A
S21445209000681344181A824298BF801A70472DE983
S2144520A0F0411C468368174605461E1B88469642E1
S2144520B028BF1646A21993420AD24FF0100372B6AD
S2144520C083F31188BFF36F8FBFF34F8F62B6FEE77A
S2144520D080693246204402F0A3FEB74213D9BA1BA4
S2144520E0AB689A420AD94FF0100372B683F311884B
S2144520F0BFF36F8FBFF34F8F62B6FEE708EB06015F
S214452100A86902F08DFEE019AB68984228BFC01A50
S214452110BDE8F08173B50E46017F14460546C907EE
S2144521201A46436813D5069901948A4213D3042266
S2144521300DEB0201FFF7B3FF03462CB122463146AD
S2144521402846FFF7ACFF6860204602B070BD944253
S21445215028BF1446F1E70024F6E72DE9F0411C4672
S2144521608368074688461D1B1646954228BF154672
S214452170AA420AD24FF0100372B683F31188BFF312
S2144521806F8FBFF34F8F62B6FEE7621993420AD24E
S2144521904FF0100372B683F31188BFF36F8FBFF30A
S2144521A04F8F62B6FEE781692A464046214402F0D3
S2144521B037FEAE4205D9721BB96908EB050002F039
S2144521C02FFEA019BB68984228BFC01ABDE8F0810B
S2144521D0F7B51746027F1C460546D2070E460368E6
S2144521E017D50422043C0DEB0201FFF7B6FF034664
S2144521F00198874238BF0020844228BF04462CB148
S214452200224631462846FFF7A8FF2860204603B0F9
S214452210F0BD3846F0E7F8B50D4604465521174655
S21445222028461E4602F024FE85420AD04FF010038B
S21445223072B683F31188BFF36F8FBFF34F8F62B6C5
S214452240FEE724220021204602F012FE9DF81830B3
S214452250A5612377C4E90276F8BD012AF7B5044699
S2144522600F460CD1042816D84FF0100372B683F3E8
S2144522701188BFF36F8FBFF34F8F62B6FEE7C0B9C5
S2144522804FF0100372B683F31188BFF36F8FBFF319
S2144522904F8F62B6FEE71546BC420CD24FF0100390
S2144522A072B683F31188BFF36F8FBFF34F8F62B655
S2144522B0FEE70025F0E714F1260F13D804F12500B4
S2144522C002F0E4FC064650B1012F3B4604F10102FC
S2144522D000F1240138BF01230095FFF79CFF3046E7
S2144522E003B0F0BD0026FAE750B94FF0100372B6BA
S2144522F083F31188BFF36F8FBFF34F8F62B6FEE748
S214452300037F9B0701D402F0EBBC2422002102F098
S214452310AFBD37B5044650B94FF0100372B683F3D8
S2144523201188BFF36F8FBFF34F8F62B6FEE7056A1E
S21445233002F08CFB206980B9636983B9237F204608
S2144523400093A169D4E90223FFF765FF25620124BE
S21445235002F0A0FB204603B030BD0024F8E7044653
S214452360F6E750B94FF0100372B683F31188BFF302
S2144523706F8FBFF34F8F62B6FEE70129836838BF7C
S21445238001218B4286BFC16001200020704730B5D1
S21445239050B94FF0100372B683F31188BFF36F8FB1
S2144523A0BFF34F8F62B6FEE78368046801684268EC
S2144523B00568A542F9D1581E0844801A834298BF3D
S2144523C0C01A30BD50B94FF0100372B683F311886A
S2144523D0BFF36F8FBFF34F8F62B6FEE756E62DE924
S2144523E0F04387B0044616468946039351B94FF0E5
S2144523F0100372B683F31188BFF36F8FBFF34F8F09
S21445240062B6FEE750B94FF0100372B683F31188F3
S214452410BFF36F8FBFF34F8F62B6FEE7027F8368C9
S214452420D20703F1FF333BD506F1040846450AD3E8
S2144524304FF0100372B683F31188BFF36F8FBFF367
S2144524404F8F62B6FEE7434501D200230393039BB5
S2144524505BBB2046FFF79BFF054632462B46494663
S2144524602046CDF80080FFF755FE0646A0B120462B
S214452470FFF70CFEE36898420ED300F0CBFD2369C8
S21445248043B1002520692B462A462946009501F08A
S2144524907DFD256100F090FE304607B0BDE8F0832F
S2144524A0B34228BF33469846D1E704A801F01AFA46
S2144524B002F0CCFA2046FFF76AFF8045054627D945
S2144524C00021084601F046FF676957B14FF01003F3
S2144524D072B683F31188BFF36F8FBFF34F8F62B623
S2144524E0FEE701F043FB606102F0D4FA039B3946F0
S2144524F03A46009338463B4601F0F4FC03A904A847
S214452500676101F015FA0028D2D0002DA1D0A4E7C6
S21445251002F0C0FAF9E72DE9F341044615461F4691
S2144525200E4651B94FF0100372B683F31188BFF3C8
S2144525306F8FBFF34F8F62B6FEE750B94FF010036B
S21445254072B683F31188BFF36F8FBFF34F8F62B6B2
S214452550FEE7037FDB074CBF02F104089046FFF712
S21445256016FF314603462A462046CDF80080FFF73B
S214452570D1FD0646F8B12046FFF788FDE368984248
S21445258019D3EFF311884FF0100372B683F3118811
S214452590BFF36F8FBFF34F8F62B623694BB10025EC
S2144525A0206901972B462A462946009501F084FD69
S2144525B0256188F31188304602B0BDE8F0812DE9E3
S2144525C0F7430446174699460E4651B94FF0100351
S2144525D072B683F31188BFF36F8FBFF34F8F62B622
S2144525E0FEE750B94FF0100372B683F31188BFF378
S2144525F06F8FBFF34F8F62B6FEE7037F13F0010F71
S21445260014BF4FF004084FF00008B9F1000F2AD068
S21445261002F01CFA2046FFF739FD8045054613D3E0
S2144526200021084601F096FE236953B14FF010038A
S21445263072B683F31188BFF36F8FBFF34F8F62B6C1
S214452640FEE701F093FA206102F024FAA84514D378
S2144526500023CDF800901A461946184601F042FC6C
S214452660002320462361FFF711FD4045054604D863
S2144526700025284603B0BDE8F0832B463A4631464A
S2144526802046FFF7A5FD05460028F1D000F0C2FC20
S214452690636943B100266069334632463146009643
S2144526A001F074FC666100F087FDE2E713B5044669
S2144526B050B94FF0100372B683F31188BFF36F8F8E
S2144526C0BFF34F8F62B6FEE7037FDB0719D5FFF7EB
S2144526D0DDFC042809D90422236820460DEB0201B7
S2144526E0FFF73BFD019802B010BD50B14FF0100307
S2144526F072B683F31188BFF36F8FBFF34F8F62B601
S214452700FEE70020EFE7F0B5044685B01E4651B912
S2144527104FF0100372B683F31188BFF36F8FBFF384
S2144527204F8F62B6FEE750B94FF0100372B683F38B
S2144527301188BFF36F8FBFF34F8F62B6FEE7037FF7
S214452740039213F0010F14BF04250025FFF79EFCE6
S214452750039A8542034603D30025284605B0F0BDB7
S2144527602046FFF735FD05460028F5D0EFF31187DF
S2144527704FF0100372B683F31188BFF36F8FBFF324
S2144527804F8F62B663694BB1019600266069334642
S21445279032463146009601F08FFC666187F3118814
S2144527A0DBE750B94FF0100372B683F31188BFF3D9
S2144527B06F8FBFF34F8F62B6FEE703684068C31A54
S2144527C058425841704710B550B94FF0100372B68D
S2144527D083F31188BFF36F8FBFF34F8F62B6FEE763
S2144527E0037F13F0010F14BF04240024FFF7CFFD29
S2144527F0A0428CBF0020012010BD73B5044650B9D9
S2144528004FF0100372B683F31188BFF36F8FBFF393
S2144528104F8F62B6FEE7EFF311864FF0100372B6A0
S21445282083F31188BFF36F8FBFF34F8F62B600698E
S214452830002548B120692B462A46CDE90051294650
S21445284001F03AFC0120256186F3118802B070BD7F
S21445285073B5044650B94FF0100372B683F311882A
S214452860BFF36F8FBFF34F8F62B6FEE7EFF3118668
S2144528704FF0100372B683F31188BFF36F8FBFF323
S2144528804F8F62B64069002548B160692B462A4697
S214452890CDE90051294601F00FFC0120656186F31C
S2144528A0118802B070BD006A704701627047007FAC
S2144528B000F00100704700000368F0B51BB343689D
S2144528C000F108025B689342436004BFC3684360F7
S2144528D04368DF6843684D1E5B689A42436004BFA1
S2144528E0536843604368DB6803F1340403F13E0CE8
S2144528F014F801EB15F8016F764502D126B164450B
S214452900F6D19F42E6D100231846F0BDF8B51C4CDB
S214452910054600220F4626686368606883F855209A
S2144529200430FEF7A4FC6B1C15D1A7B16268E368BA
S214452930996893606268D1606268996804324A60B3
S214452940626804329A6004F1080263685A61A368B3
S2144529500133A360F8BD751963685D6006D3E06909
S2144529606168BDE8F8400431FEF76ABC206A6168D4
S2144529700431FEF765FC636AAB42EBD96562E9E76D
S2144529801000402050B94FF0100372B683F31188FB
S214452990BFF36F8FBFF34F8F62B6FEE74369064AB4
S2144529A0934207D1806A2033984203D0B0FA80F02C
S2144529B0400970470020704718004020054B1A6AAA
S2144529C012681AB94FF0FF325A6270471A6AD268CF
S2144529D01268F9E71000402080B5134C4FF0E0260A
S2144529E04FF08057636D4BB9A36D012BFAD9C6F8E6
S2144529F0047DBFF34F8FBFF36F8FF3E702F026F8E2
S214452A00A36CDD68281DFEF732FC236D013B23656C
S214452A10636D013B636502F03DF8286B02F060F993
S214452A20284602F05DF9DDE7100040202DE9F84F15
S214452A30950081460E469A462846DDF8288002F0DF
S214452A4025F9074610B3582002F020F90446D0B1C0
S214452A505822002102F00CFA2A46A521384627635B
S214452A6002F006FAD4F830B0A6B9B8F1040F20D96A
S214452A704FF0100372B683F31188BFF36F8FBFF321
S214452A804F8F62B6FEE7384602F02AF94FF0FF3020
S214452A90BDE8F88F731E04F13401093613F8010FAB
S214452AA001F8010B08B1B342F8D1002384F83D3054
S214452AB0DBE7271D043DC4F82C803846C4F848801B
S214452AC0FEF7AFFB04F11800FEF7ABFB5D44C8F11B
S214452AD005035246494625F00700A3612461646212
S214452AE001F078FF0B9B206003B11C60364D01F06A
S214452AF0ADFF2B6D05F1580801332B656E68002E2A
S214452B0056D16C602B6D012B20D1C1460136484607
S214452B10FEF77CFB09F11409052EF7D12B4E06F17D
S214452B2014093046FEF772FB4846FEF76FFBA6F1E2
S214452B309400FEF76BFBA6F18000FEF767FBA6F157
S214452B40B400FEF763FB2E62C5F81C90D5F8E83056
S214452B50D5F8EC200133C5F8E8302364E36A9342A0
S214452B6001D9C5F8EC3014225343E9184344CA6DDD
S214452B709068A260E06090684760976063618B6D7F
S214452B8001338B6501F086FFD5F8E43073B16B6889
S214452B90DA6AE36A9A4209D24FF0E0234FF0805250
S214452BA0C3F8042DBFF34F8FBFF36F8F01206FE738
S214452BB0D5F8E430002BC9D16B68DA6AE36A9A42E5
S214452BC0C4D86C60C2E700BF10004020CC0040204F
S214452BD070B50546264C01F039FF05B965682E1DCA
S214452BE03046FEF744FBAB6A1BB105F11800FEF70D
S214452BF03EFBD4F8E8300133C4F8E8306368AB42AE
S214452C0025D131461B48FEF70FFB636D01336365DF
S214452C1001F040FF6368AB4205D0286B02F060F8D0
S214452C20284602F05DF8D4F8E43003B36368AB4257
S214452C301DD1D4F8F03083B14FF0100372B683F34C
S214452C401188BFF36F8FBFF34F8F62B6FEE7236DD4
S214452C50013B2365FFF7B2FEDAE74FF0E0234FF07E
S214452C608052C3F8042DBFF34F8FBFF36F8F70BDEF
S214452C70100040204C0040202DE9F041054650B953
S214452C804FF0100372B683F31188BFF36F8FBFF30F
S214452C904F8F62B6FEE7164C6368834221D001F03B
S214452CA0D5FED4F820806E69E76901F0F3FE464507
S214452CB019D0BE4217D004F108039E4209D1AB6A2B
S214452CC08BB995F85430012B0CBF02200320BDE884
S214452CD0F0813C34A64208D0002E0CBF04200120CB
S214452CE0F5E70020F3E70220F1E70420EFE700BF11
S214452CF01000402013B5044601F0A8FE0CB9044B5D
S214452D005C68E06A019001F0C5FE019802B010BD0E
S214452D101000402010B5044601F08AFFEFF31183FA
S214452D204FF0100272B682F31188BFF36F8FBFF370
S214452D304F8F62B60CB9034A5468E06A83F311882C
S214452D4010BD00BF1000402004292DE9F04104467F
S214452D500E460AD94FF0100372B683F31188BFF3B7
S214452D606F8FBFF34F8F62B6FEE701F06FFE0CB96B
S214452D702A4B5C68A26C964245D0284D47D96B686D
S214452D80A34249D06B68DF6AB7428CBF002701274C
S214452D90E36AA6649A42A26908BFE662002A4FF033
S214452DA01402A4BFC6F10506A6611D4E02FB0363C9
S214452DB062699A421CD104F104084046FEF757FA68
S214452DC0E36AD5F8EC20934201D9C5F8EC301422D5
S214452DD053431D443344EA6D9168A260E1609168AF
S214452DE0C1F80480C2F808806361AB6D0133AB65FA
S214452DF04FB14FF0E0234FF08052C3F8042DBFF398
S214452E004F8FBFF36F8FBDE8F04101F043BE6F684B
S214452E103B1B5F425F41BBE70027B9E710004020F8
S214452E2068004020F8B5044650B94FF0100372B616
S214452E3083F31188BFF36F8FBFF34F8F62B6FEE7FC
S214452E401B4D6B68834232D001F000FE2046FFF7EB
S214452E5099FD40B3261D3046FEF709FAE36AD5F8D4
S214452E60EC20934201D9C5F8EC3014225A43A818F1
S214452E70C16D8F68A160E7608F687E608E600D4982
S214452E800A446261826D013282656A68D26A9342FB
S214452E9009D34FF0E0234FF08052C3F8042DBFF31B
S214452EA04F8FBFF36F8FBDE8F84001F0F3BDF8BD17
S214452EB010004020680040202DE9F041064650B9F4
S214452EC04FF0100372B683F31188BFF36F8FBFF3CD
S214452ED04F8F62B6FEE701F0ABFEEFF311874FF07A
S214452EE0100372B683F31188BFF36F8FBFF34F8F0E
S214452EF062B63046FFF746FD044648B31B4DD5F847
S214452F00F04054BB6B68F26ADB6A9A4202D30124EE
S214452F10C5F8F44006F104084046FEF7A8F9F36AFA
S214452F20D5F8EC20934201D9C5F8EC30142253432A
S214452F301D44EA6D9168B260F1609168C1F80480FD
S214452F40C2F808800A4A13447361AB6D0133AB651A
S214452F5087F311882046BDE8F08106F1180105F192
S214452F6028000024FEF760F9F2E700BF1000402075
S214452F706800402037B51A4C00255A22194904F1F5
S214452F80F8031948009501932B46FFF74FFD012896
S214452F9019D101F061FB012815D14FF0100372B627
S214452FA083F31188BFF36F8FBFF34F8F62B64FF031
S214452FB0FF336362C4F8E400256001F0D7FD0B4B90
S214452FC01B6803B030BD0130F9D14FF0100372B61F
S214452FD083F31188BFF36F8FBFF34F8F62B6FEE75B
S214452FE010004020BC8D4500D92945004823402087
S214452FF04FF0100372B683F31188BFF36F8FBFF39C
S2144530004F8F62B6024B0022C3F8E42001F00ABD9A
S21445301010004020034AD2F8F0300133C2F8F030B1
S214453020704700BF10004020014B1868704700BF2E
S2144530301000402008B501F0FBFD014B186808BD9F
S21445304010004020014B186D704700BF100040200F
S21445305068B9084B586850B94FF0100372B683F3F9
S2144530601188BFF36F8FBFF34F8F62B6FEE73430DC
S214453070704700BF100040204D49D1F8F0302DE98B
S214453080F047002B40F08D800C6801340C60C4B9C5
S2144530900B6A1B6853B14FF0100372B683F3118861
S2144530A0BFF36F8FBFF34F8F62B6FEE70B6ACA69F1
S2144530B00A62CB61D1F8FC300133C1F8FC30FFF72A
S2144530C07DFC4B6A00209C420FD24B681422DB6A7B
S2144530D002FB03139B6D022BD1F8F43028BF012069
S2144530E0002B18BF0120BDE8F08782464FF0140E2E
S2144530F0DFF8C0C00B6A1B681BB94FF0FF334B6245
S214453100E3E70B6ADB68DB685A68944201D24A6299
S214453110DBE75F691D1DD3E90228C2F80880C8F8B9
S21445312004207A68AA423A6802F1FF3208BFC7F817
S2144531300480C3F814A03A609A6A8AB15668D3E9FF
S2144531400787C8F808701F6AC7F8048003F118088F
S214453150464508BF57601768C3F828A0013F176063
S214453160DF6AD1F8EC20974201D9C1F8EC700EFB26
S21445317007F801EB0809D9F85C2096689A60DE6086
S2144531809668756095600CEB08025A61D9F8583018
S2144531900133C9F858304B68DB6A9F4288BF012027
S2144531A0A8E7D1F8003100200133C1F800319AE78D
S2144531B010004020680040202DE9F843464CD4F8DE
S2144531C0F03053B94FF0100372B683F31188BFF34E
S2144531D06F8FBFF34F8F62B6FEE701F037FCD4F82A
S2144531E0F030013BC4F8F030D4F8F0302BB1002471
S2144531F001F050FC2046BDE8F883226D002AF6D043
S2144532009846142604F1580C4FF0010E40E0636BC7
S214453210DB689A6A03F11807D3E9071088604160AE
S2144532205168B942116801F1FF3108BF5060C3F8D3
S214453230288011605A691F1DD3E9021088604160D5
S2144532405168B942116801F1FF3108BF50601160FD
S214453250DA6AD4F8EC108A4201D9C4F8EC2006FBA9
S21445326002F104EB01096144D9F85C008568986071
S214453270DD6085686F6087605961D9F858100131FF
S214453280C9F858106168C96A8A4201D3C4F8F4E09F
S214453290A26A002ABBD10BB1FFF790FBD4F80051C8
S2144532A04DB10126FFF7E8FE08B1C4F8F460013DCC
S2144532B0F8D1C4F80051D4F8F430002B97D04FF02D
S2144532C0E0234FF08052C3F8042DBFF34F8FBFF372
S2144532D06F8F01248CE700BF1000402070B550B9B1
S2144532E04FF0100372B683F31188BFF36F8FBFF3A9
S2144532F04F8F62B6FEE751B94FF0100372B683F3AF
S2144533001188BFF36F8FBFF34F8F62B6FEE71B4C36
S214453310D4F8F06056B14FF0100372B683F31188B7
S214453320BFF36F8FBFF34F8F62B6FEE7FFF772FEB0
S214453330056822686B182CBF01240024954203605B
S21445334013D974B9FFF738FF48B94FF0E0234FF06B
S2144533508052C3F8042DBFF34F8FBFF36F8F2046BF
S21445336070BD9A4204D33446ECE70CB99A42E9D28A
S2144533700021981A0124FFF7C9FAE3E71000402018
S21445338008B550B94FF0E0234FF08052C3F8042DEE
S214453390BFF34F8FBFF36F8F08BD0C4BD3F8F010BC
S2144533A051B14FF0100372B683F31188BFF36F8F98
S2144533B0BFF34F8F62B6FEE7FFF72CFEFFF7A6FA80
S2144533C0FFF7FAFE0028DDD0E6E700BF10004020F4
S2144533D02DE9F843074601F0C4FC09280AD94FF001
S2144533E0100372B683F31188BFF36F8FBFF34F8F09
S2144533F062B6FEE7144E05254FF01408FFF70AFEA1
S21445340006F15809013D394608FB0590FFF754FA81
S2144534100446A0B9002DF5D1306AFFF74DFA0446AB
S21445342068B9F069FFF748FA044640B90748FFF718
S21445343043FA044618B90648FFF73EFA0446FFF72E
S214453440BBFE2046BDE8F88310004020180040200B
S2144534504C00402038B50F4C0546D4F8F03053B1F3
S2144534604FF0100372B683F31188BFF36F8FBFF327
S2144534704F8F62B6FEE7FFF7CDFD01F0E7FAD4F8C9
S21445348000312B44C4F8003101F004FBBDE8384058
S214453490FFF792BE10004020F8B5044650B94FF0ED
S2144534A0100372B683F31188BFF36F8FBFF34F8F48
S2144534B062B6FEE7FFF7AEFDFFF7DEFB022833D127
S2144534C0261D3046FDF7D3FE01F0C0FAA36A33B198
S2144534D004F11800FDF7CBFE012384F8553001F0C2
S2144534E0D9FA124BE26AD3F8EC108A4201D9C3F8EE
S2144534F0EC20142151435D18E86D8768A060E760AD
S21445350087687E6086600A48014461610124A96D2A
S2144535100131A9655968C96A8A4201D9C3F8F44098
S214453520FFF74AFE2046F8BD0024F9E71000402084
S21445353068004020194BD3F8F02030B51AB1012267
S214453540C3F8F42030BDC3F8F4201425D3F8EC2096
S21445355005FB02F019188C6D8CB1CC6D104D646866
S2144535602844CC65844204BF6068C865142101FBC5
S2144535700231C96DC9685960C3F8EC20E2E752B913
S2144535804FF0100372B683F31188BFF36F8FBFF306
S2144535904F8F62B6FEE7013ADAE700BF10004020DB
S2144535A07000402070B50446264D01F04FFA04B928
S2144535B06C68261D3046FDF75AFEA36A1BB104F11A
S2144535C01800FDF754FE31461F48FDF72DFE94F8CA
S2144535D05430012B02D1002384F8543001F05AFAB6
S2144535E0D5F8E4302BB101F031FAFFF7E7F901F0F1
S2144535F051FA6B68A3421AD1D5F8E430C3B1D5F871
S214453600F03053B14FF0100372B683F31188BFF311
S2144536106F8FBFF34F8F62B6FEE74FF0E0234FF054
S2144536208052C3F8042DBFF34F8FBFF36F8F70BD25
S214453630A9682A6D914201D16B60F8E7BDE87040F4
S214453640FFF778BF100040201800402010B50C4604
S21445365050B94FF0100372B683F31188BFF36F8FDE
S214453660BFF34F8F62B6FEE7054B59681831FDF735
S214453670E7FD20460121BDE81040FFF747B900BFEA
S21445368010004020034630B450B94FF0100372B6D0
S21445369083F31188BFF36F8FBFF34F8F62B6FEE794
S2144536A0144CD4F8F00050B94FF0100372B683F3BB
S2144536B01188BFF36F8FBFF34F8F62B6FEE7606822
S2144536C041F000418161596860688D68C1616068F4
S2144536D0056260688D681830686060681830886074
S2144536E0104661688B621968013130BC196001214A
S2144536F0FFF70CB91000402070B40D4650B94FF096
S214453700100372B683F31188BFF36F8FBFF34F8FE5
S21445371062B6FEE70F4B002A44685968A668CC6136
S21445372059680E625968A66801F1180171605968B2
S2144537305B6801F11801A16011469862036803F1C0
S214453740010303600CBF28464FF0FF3070BCFFF7FF
S214453750DDB800BF10004020C368DB68F0B553B93C
S2144537604FF0100372B683F31188BFF36F8FBFF324
S2144537704F8F62B6FEE79A6A03F11804D3E907014C
S214453780816048605068A04208BF51600021996238
S214453790116801391160214AD96AD2F8F00000282B
S2144537A02BD158691E1DD3E90254AC60DC686560B0
S2144537B04568B54208BF44600468013C0460D2F8D9
S2144537C0EC00814201D9C2F8EC1014204843151884
S2144537D0EC6DA7689C60DF60A7687E60A660104CAD
S2144537E020445861AB6D0133AB655368DB6A99423B
S2144537F011D90120C2F8F400F0BDD06A8568D861B9
S2144538001D6285686C60846002F128009862936A40
S21445381001339362E9E70020EEE700BF1000402041
S214453820680040202D4AD2F8F030F0B553B94FF035
S214453830100372B683F31188BFF36F8FBFF34F8FB4
S21445384062B6FEE741F00041C368016053B94FF0E8
S214453850100372B683F31188BFF36F8FBFF34F8F94
S21445386062B6FEE7D0E9015401691E1DAC60846866
S21445387065604D68854208BF4C6000240461086851
S214453880013808605969D3E90240A060D8684460A9
S2144538904C68B44208BF4860086801380860D96A71
S2144538A0D2F8EC00814201D9C2F8EC101420484306
S2144538B01518EC6DA7689C60DF60A7687E60A660FB
S2144538C0074C20445861AB6D0133AB655368DB6AE2
S2144538D0994202D90123C2F8F430F0BD10004020C9
S2144538E06800402010B5044650B94FF0100372B634
S2144538F083F31188BFF36F8FBFF34F8F62B6FEE732
S21445390001F0A4F8044BD3F8FC201B6822606360E2
S214453910BDE8104001F0BEB810004020034BD3F878
S214453920FC201B6802604360704700BF10004020C3
S21445393070B50E46054650B94FF0100372B683F380
S2144539401188BFF36F8FBFF34F8F62B6FEE751B94D
S2144539504FF0100372B683F31188BFF36F8FBFF332
S2144539604F8F62B6FEE701F071F8144A1068536847
S21445397093F8554044B15368002283F855200124F6
S21445398001F088F8204670BD3368591CF8D0D2F847
S214453990FC202C686968944204D0814202D80023F2
S2144539A03360ECE7421A9342F9D91B1A284600249D
S2144539B00B443360FFF7B2FFE2E700BF100040203C
S2144539C0024B0122C3F8F420704700BF1000402088
S2144539D000B1406C704700B14164704770B50C4605
S2144539E01646054608B91B4A556805F13402052BA7
S2144539F025606260EA6A22612A6BE2612A6CA260EF
S214453A00AA6C62614FF00002A26119D0114949685B
S214453A10A94209D1E260D6B1296B0023CA5CA52A22
S214453A2013D09B08238470BD032BE360F3D1FFF7C7
S214453A30F1FAAB6A0BB10223E360FFF7BDFBEAE799
S214453A402846FFF719F9E060E5E70133E6E72684FF
S214453A50E9E700BF100040202DE9F84F0D680646FF
S214453A600C4617461DB34B6801F1080800254FF074
S214453A70240B5B6843454B6004BFCB684B604B6883
S214453A80D3F80CA063680BFB0561012201355B6822
S214453A909845636004BFD8F8043063606368D3F81C
S214453AA00C903B464846FFF799FFCA45EAD128465B
S214453AB0BDE8F88F2DE9F84FDFF88C901746FFF7ED
S214453AC0A9FA0546D9F850308B4237D80526002442
S214453AD04FF0140B09F1580A4FF02408013E08FB35
S214453AE0045001220BFB06A1FFF7B6FF0444002E47
S214453AF0F4D1D9F82010022208FB0450FFF7ACFF9A
S214453B000444D9F81C10022208FB0450FFF7A4FF12
S214453B10044404220A4908FB0450FFF79DFF044469
S214453B200322084908FB0450FFF796FF044407B1F3
S214453B303E60FFF741FB2046BDE8F88F0024F8E7D6
S214453B404C004020180040201000402008B9064B85
S214453B505868026B0020135CA52B02D0C0F38F007B
S214453B6070470130F7E700BF10004020014B58680A
S214453B70704700BF10004020064BD3F8E42032B112
S214453B80D3F8F030002B0CBF0220002070470120F0
S214453B90704700BF10004020F8B50446002831D0D5
S214453BA01F4DC26A6B68DB6A9A4230D28369002B26
S214453BB004DB6B68DB6AC3F1050383611423194E86
S214453BC003FB0262636993421DD1271D3846FDF704
S214453BD04EFB6B68D5F8EC20DB6A9342E36201D96D
S214453BE0C5F8EC30142253431D443344EA6D9168BE
S214453BF0A260E16091684F6097606361AB6D013389
S214453C00AB650120F8BD6B68DB6AE362F9E76B6874
S214453C10806CDC6AA0422CBF00200120F2E700BF82
S214453C20100040206800402070B5044608B90020C2
S214453C3070BD224D6B6883420AD04FF0100372B6B2
S214453C4083F31188BFF36F8FBFF34F8F62B6FEE7DE
S214453C50DB6C53B94FF0100372B683F31188BFF38C
S214453C606F8FBFF34F8F62B6FEE7C16A013B826C2A
S214453C70C3649142DBD0002BD9D1061D3046FDF7F3
S214453C80F6FAA36CC3F10502E362A261D5F8EC200F
S214453C90934201D9C5F8EC301422012053431D4404
S214453CA0EA6D9168A260E16091684E609660044A4C
S214453CB013446361AB6D0133AB65B9E71000402033
S214453CC068004020F8B5044600284ED0C26C52B96C
S214453CD04FF0100372B683F31188BFF36F8FBFF3AF
S214453CE04F8F62B6FEE7836C994238BF1946C36A62
S214453CF08B423AD0012A38D11C4D6A6882420AD195
S214453D004FF0100372B683F31188BFF36F8FBFF37E
S214453D104F8F62B6FEE78269154E002A4FF01402B1
S214453D20C16202FB0363A8BFC1F105014269A8BF92
S214453D3081619A4219D1071D3846FDF798FAE36A1C
S214453D40D5F8EC20934201D9C5F8EC3014225343FC
S214453D501D443344EA6D9168A260E16091684F6006
S214453D6097606361AB6D0133AB65F8BD10004020CD
S214453D70680040202DE9F04F2C4B002704464FF0B5
S214453D80240A196D85B00770186D03910AFB00F07B
S214453D9000F07CFF0646002844D03A460399FFF7D4
S214453DA089FE35460AFB006ADFF888B0AA4505D184
S214453DB0304605B0BDE8F04F00F092BFEB682046B0
S214453DC069682435042B96BF194A4FF0000912F846
S214453DD0039001F091F8204600F0C3FF0928C0F192
S214453DE00902804688BF002220212018039201F050
S214453DF03FF8039A594608EB02004A46275404EB17
S214453E00000855F81C3C4046019335F8043C0093A1
S214453E1055F8143C01F050F8404600F0A2FF08EB78
S214453E200004C3E705B0BDE8F08F00BF1000402092
S214453E30B08D4500C18D4500044B5A685968906958
S214453E405A68CB6AC3F1050393617047100040205A
S214453E50044B5A681AB15968CA6C0132CA64586824
S214453E60704700BF1000402070B50E46154650B14D
S214453E704FF0100372B683F31188BFF36F8FBFF30D
S214453E804F8F62B6FEE7164C00F0E0FD63681B6D8B
S214453E908BB96368012183F8541065B12846FEF74F
S214453EA035FD4FF0E0234FF08052C3F8042DBFF3A5
S214453EB04F8FBFF36F8F00F0EDFD00F0C7FD6368D1
S214453EC01D6D1DB163684EB100221A6563680022F8
S214453ED083F8542000F0DEFD284670BD6A1EF4E7E0
S214453EE0100040202DE9F041DDF818800F461646B3
S214453EF01D4650B14FF0100372B683F31188BFF3D9
S214453F006F8FBFF34F8F62B6FEE71F4C00F09EFDE6
S214453F10636893F85430022B18D062680121136DFC
S214453F2023EA07031365636883F85410B8F1000F56
S214453F300CD04046FEF7EAFC4FF0E0234FF08052A7
S214453F40C3F8042DBFF34F8FBFF36F8F00F0A2FD6C
S214453F5000F07CFD15B163681B6D2B60636893F8B4
S214453F605430022B0ED1616801250B6D23EA0603FA
S214453F700B656368002283F8542000F08BFD2846C5
S214453F80BDE8F0810025F4E710004020F8B5069F0F
S214453F90044615461E4651B14FF0100372B683F3DC
S214453FA01188BFF36F8FBFF34F8F62B6FEE750B9E8
S214453FB04FF0100372B683F31188BFF36F8FBFF3CC
S214453FC04F8F62B6FEE700F041FD0FB1236D3B60B3
S214453FD094F854100223C9B284F85430042E16D8E7
S214453FE0DFE806F00A0307051100226D154325652F
S214453FF002E0236D01332365012917D0012400F023
S21445400049FD2046F8BD0229F1D10024F7E7284BA3
S2144540101B68002BF0D04FF0100372B683F311885F
S214454020BFF36F8FBFF34F8F62B6FEE7D4E9021238
S2144540306369261D8A60E26851605968B14208BFC7
S2144540405A601A68013A1A60194AE36AD2F8EC10BF
S2144540508B4201D9C2F8EC30142159435518E86D06
S2144540608768A060E76087687E608660114801447F
S2144540706161A96D0131A965A16A51B14FF010037F
S21445408072B683F31188BFF36F8FBFF34F8F62B657
S214454090FEE75268D26A9342B0D94FF0E0234FF01C
S2144540A08052C3F8042DBFF34F8FBFF36F8FA5E73C
S2144540B010004020680040202DE9F04115461F4677
S2144540C00446DDE9068650B94FF0100372B683F311
S2144540D01188BFF36F8FBFF34F8F62B6FEE751B1BE
S2144540E04FF0100372B683F31188BFF36F8FBFF39B
S2144540F04F8F62B6FEE700F09BFDEFF3118C4FF055
S214454100100372B683F31188BFF36F8FBFF34F8FDB
S21445411062B6B8F1000F02D0236DC8F8003094F8A7
S21445412054100223C9B284F85430042F16D8DFE859
S21445413007F00A0307051100226D1543256502E0C1
S214454140236D01332365012917D001208CF311888F
S214454150BDE8F0810229F1D10020F7E7314B1B6815
S214454160002BF0D04FF0100372B683F31188BFF3DF
S2144541706F8FBFF34F8F62B6FEE7A36A53B14FF01A
S214454180100372B683F31188BFF36F8FBFF34F8F5B
S21445419062B6FEE7234BE26AD3F8F010002931D128
S2144541A0616904F1040ED4E902058560E568686036
S2144541B048687045086800F1FF3008BF4D600860E4
S2144541C0D3F8EC108A4201D9C3F8EC2014215143A8
S2144541D05F18F86D8568A060E5608568C5F804E0F9
S2144541E0C0F808E0104801446161B96D0131B96510
S2144541F05968C96A8A42A8D9012206B13260C3F80D
S214454200F420A2E7D96A8868E161206204F11800C3
S2144542108D686860886003F12801A162996A01315A
S2144542209962E5E71000402068004020F8B515463D
S214454230044650B94FF0100372B683F31188BFF3A6
S2144542406F8FBFF34F8F62B6FEE751B14FF0100345
S21445425072B683F31188BFF36F8FBFF34F8F62B685
S214454260FEE700F0E5FCEFF311864FF0100372B65B
S21445427083F31188BFF36F8FBFF34F8F62B6022368
S21445428094F8542084F85430012A236D03F1010331
S214454290236547D1A36A53B14FF0100372B683F333
S2144542A01188BFF36F8FBFF34F8F62B6FEE7274B7C
S2144542B0E26AD3F8F010002937D1616904F1040E9B
S2144542C0D4E902078760E7687860486870450868FB
S2144542D000F1FF3008BF4F600860D3F8EC108A4203
S2144542E001D9C3F8EC201421514303EB010CDCF84B
S2144542F05C008768A060E7608768C7F804E0C0F898
S21445430008E0134801446161DCF858100131CCF8E7
S21445431058105968C96A8A4204D9012205B12A60EB
S214454320C3F8F42086F31188F8BDD96A8868E16138
S214454330206204F118008F687860886003F12801D0
S214454340A162996A01319962E3E700BF10004020F7
S2144543506800402010B5044651B14FF0100372B6C0
S21445436083F31188BFF36F8FBFF34F8F62B6FEE7B7
S21445437008B9094B5C6800F069FB94F85430002096
S214454380022B06D184F85400012400F083FB204616
S21445439010BD0446F9E700BF1000402073B50E4631
S2144543A01546044608B9084B5C6804EB860400F0DD
S2144543B04DFB206D236D019023EA0503236500F030
S2144543C069FB019802B070BD10004020F8B50F4C4F
S2144543D000F03CFB2568A5B9271D04F118063846AC
S2144543E0FCF714FF3046FCF711FF2A4610210A2039
S2144543F0C4E90B76FDF72AF8206010B10449FDF7AD
S214454400A7FDBDE8F84000F045BB00BF14014020BD
S214454410D08D4500914208B5416000610AD8D21A50
S21445442083699A420ED2084B011D186BFCF708FFAC
S214454430002008BD9A4201D2994203D2024B011D83
S214454440D86AF3E70120F4E71401402070B5044626
S2144544500D461646A1692B46324620462944FFF7A7
S214454460D9FF00B970BDA36920461D44236A984705
S214454470F0E70F4BDB6ADB6837B5DC68054601912C
S214454480201DFCF7F4FE94F82830019A13F0040F2B
S21445449009D029462046FFF7D9FF236A204603B0B0
S2144544A0BDE83040184723F0010384F82830F4E788
S2144544B01401402070B50E4C0646FEF7B5FD054680
S2144544C0636B834211D9E36A1A683AB9226BC4E929
S2144544D00B23012328463360656370BDDB684FF0C8
S2144544E0FF311868FFF7C5FFEDE70023F2E700BF89
S2144544F014014020F0B5574F89B0FB6A1E68002E60
S21445450032D0DB6800241E68FEF784FD04A8FFF75A
S214454510D1FF049B0546002B41D13CBBB0422AD374
S214454520FEF74AFE29463046FFF7A3FF002204A9B8
S2144545303868FDF7CEF90028DFD0049B0698002B97
S21445454030DB069C6369002B33D103A8FFF7B2FF27
S214454550049B0246013B082BE8D8DFE803F02E2EE5
S2144545605259732E2E5259000124CDE73B6B1C68D9
S214454570B4FA84F464092246711B3868FDF763FD76
S214454580FEF71AFE0028D1D14FF0E0234FF08052B7
S214454590C3F8042DBFF34F8FBFF36F8FC6E7FEF703
S2144545A00BFEC3E7059B07999847049B002BBDDB8D
S2144545B0C7E7201DFCF75BFEC7E794F82830A169DE
S2144545C043F001030190204684F82830059B1944A2
S2144545D0FFF720FF0028A9D094F82830019A13F059
S2144545E0040F09D0A369204605991944FFF72EFF05
S2144545F0236A2046984799E723F0010384F8283034
S214454600F6E794F8283023F0010384F828308DE740
S21445461094F8283043F0010384F828300599A161C1
S21445462051B94FF0100372B683F31188BFF36F8FFD
S214454630BFF34F8F62B6FEE7034601442046FFF7B9
S214454640E9FE73E794F828309A07DCD4204600F054
S21445465047FB6BE71401402007B5FFF7B7FE0E4B47
S2144546601A6852B94FF0100372B683F31188BFF338
S2144546706F8FBFF34F8F62B6FEE73833B4220749D4
S21445468001930223064800930023FEF7CFF900283E
S214454690E8D003B05DF804FB14014020D58D4500F5
S2144546A0F54445002DE9F04180462C200D4616463A
S2144546B01F4600F0EBFA044600B3002380F8283086
S2144546C055B94FF0100372B683F31188BFF36F8F59
S2144546D0BFF34F8F62B6FEE7FFF778FE069B201DB9
S2144546E0C4F800802362C4E90657FCF79AFD2EB14C
S2144546F094F8283043F0040384F828302046BDE873
S214454700F0817FB5164604461A4650B94FF0100359
S21445471072B683F31188BFF36F8FBFF34F8F62B6C0
S214454720FEE70D4D286878B105290294CDE90016B7
S2144547300CDCFFF721FA00230228694628680CBFDF
S214454740089A1A46FCF7F0FE04B070BD0023694689
S214454750FCF7D7FFF8E700BF14014020074B986BDE
S21445476050B94FF0100372B683F31188BFF36F8FBD
S214454770BFF34F8F62B6FEE7704700BF1401402077
S21445478050B94FF0100372B683F31188BFF36F8F9D
S214454790BFF34F8F62B6FEE78069704738B50D4662
S2144547A0044650B94FF0100372B683F31188BFF331
S2144547B06F8FBFF34F8F62B6FEE700F047F994F868
S2144547C028303DB143F0040384F82830BDE838402E
S2144547D000F060B903F0FB03F6E713B5044650B99D
S2144547E04FF0100372B683F31188BFF36F8FBFF394
S2144547F04F8F62B6FEE700F029F994F82800C0F31B
S2144548008000019000F046F9019802B010BDFFF710
S214454810E4BF50B94FF0100372B683F31188BFF367
S2144548206F8FBFF34F8F62B6FEE74068704750B94B
S2144548304FF0100372B683F31188BFF36F8FBFF343
S2144548404F8F62B6FEE70068704713B5044650B909
S2144548504FF0100372B683F31188BFF36F8FBFF323
S2144548604F8F62B6FEE700F0F1F894F8280000F0A6
S2144548700100019000F00EF9019802B010BD13B585
S214454880044650B94FF0100372B683F31188BFF350
S2144548906F8FBFF34F8F62B6FEE700F0D7F8E0693B
S2144548A0019000F0F7F8019802B010BD38B50D46F6
S2144548B0044650B94FF0100372B683F31188BFF320
S2144548C06F8FBFF34F8F62B6FEE700F0BFF8E56126
S2144548D0BDE8384000F0DEB81FB514461A466FF0FE
S2144548E00103CDE9003005480023CDE902146946A9
S2144548F00068FCF706FF04B010BD00BF1401402059
S21445490030B514461A460E4B85B01D6855B94FF05E
S214454910100372B683F31188BFF36F8FBFF34F8FC3
S21445492062B6FEE74FF0FF33CDE90214CDE900301D
S214454930694600232846FCF7F7FD05B030BD00BFA5
S21445494014014020406A70474162704700000000ED
S21445495008480068006880F308884FF0000080F338
S214454960148862B661B6BFF34F8FBFF36F8F00DF13
S21445497000BF000008ED00E0DFF80C00016841F4D8
S214454980700101607047000088ED00E0002382B0AA
S21445499001930F4B1B6801330AD04FF0100372B6D4
S2144549A083F31188BFF36F8FBFF34F8F62B6FEE771
S2144549B04FF0100372B683F31188BFF36F8FBFF3C2
S2144549C04F8F62B6019B002BFCD002B0704700BFEC
S2144549D04C2340204FF0807321F0010140F8202CF5
S2144549E044380364034BC16383636FF00203036279
S2144549F0704700BF8D494500094B19680868B0E8FF
S214454A00F04F80F30988BFF36F8F4FF0000080F3B7
S214454A1011887047AFF30080AFF30080AFF3008096
S214454A2014004020084B1B68B3F57A7F0AD04FF038
S214454A30100372B683F31188BFF36F8FBFF34F8FA2
S214454A4062B6FEE7704700BF4C2340204FF0100388
S214454A5072B683F31188BFF36F8FBFF34F8F62B67D
S214454A600B4A13680133012B136010D14FF0E02336
S214454A70D3F8043DDBB253B14FF0100372B683F35F
S214454A801188BFF36F8FBFF34F8F62B6FEE770474F
S214454A904C234020094A136853B94FF0100372B6A9
S214454AA083F31188BFF36F8FBFF34F8F62B6FEE770
S214454AB0013B13600BB983F3118870474C234020A4
S214454AC0EFF30980BFF36F8F154B1A681EF0100F72
S214454AD008BF20ED108A20E9F04F10602DE9090047
S214454AE04FF0100072B680F31188BFF34F8FBFF3B7
S214454AF06F8F62B6FEF71EFD4FF0000080F31188FB
S214454B0009BC19680868B0E8F04F1EF0100F08BFDA
S214454B10B0EC108A80F30988BFF36F8F704700BFEB
S214454B201400402008B54FF0100372B683F3118881
S214454B30BFF36F8FBFF34F8F62B6FEF79DFA28B16E
S214454B404FF0E0234FF08052C3F8042D002383F343
S214454B50118808BD4FF0E02300221A619A61024A87
S214454B605A6107221A617047FF7002002D4B37B510
S214454B701A780021D2B20192FF221A701B782A4A6F
S214454B80DBB28DF803309DF8033003F01003137045
S214454B90072353609DF803005C1E00060ED411B132
S214454BA0032B536013D04FF0100372B683F311886E
S214454BB0BFF36F8FBFF34F8F62B6FEE79DF80330A6
S214454BC001215B00DBB28DF803302346E2E74FF464
S214454BD040734FF0E02400255360019B114ADBB239
S214454BE01370D4F8203D43F47003C4F8203DD4F840
S214454BF0203D43F07043C4F8203DFFF7ABFF0B4B19
S214454C001D60FFF7B9FED4F8343F43F04043C4F87F
S214454C10343FFFF79DFEFEF78DFC2846FFF7B6FEB0
S214454C2003B030BD00E400E0500140204C23402056
S214454C30EFF305830F2B134A0FD913495B5C1178A5
S214454C4099420AD94FF0100372B683F31188BFF321
S214454C506F8FBFF34F8F62B6FEE74FF0E023526883
S214454C60D3F80C3D03F4E06393420AD94FF01003A2
S214454C7072B683F31188BFF36F8FBFF34F8F62B65B
S214454C80FEE7704750014020F0E300E0430710B5CB
S214454C90044606D020F00703083383428CBF1C46E3
S214454CA00024FEF7B7F90C4B1A681AB90B4A22F0DE
S214454CB007021A6054B15A6841F6F77110198842CE
S214454CC008D8824206D21C6858601444FEF774FA27
S214454CD0204610BD0024F9E75801402067014020D2
S214454CE050B14FF0100372B683F31188BFF36F8F40
S214454CF0BFF34F8F62B6FEE77047024B00225A60FD
S214454D00704700BF58014020024B5868C0F5FF5019
S214454D101830704758014020024B586800F0030091
S214454D20704700BF00002640EFF310807047EFF352
S214454D3010807047EFF31080704782B08DF80700FB
S214454D409DF807300BB900BEFDE702B0704782B04C
S214454D508DF807009DF807300BB900BEFDE702B099
S214454D607047034613F8012B002AFBD1181A013861
S214454D707047000000000000000000000000000032
S214454D8001F0FF01102A2BDB10F0070F08D010F8B2
S214454D90013B013A8B422DD010F0070F42B3F6D1B6
S214454DA0F0B441EA012141EA014122F007047FF0CF
S214454DB000070023F0E80256083C85EA010586EA26
S214454DC0010685FA47F5A3FA87F586FA47F6A5FA62
S214454DD087F68EB9EED1F0BC01F0FF0102F007026E
S214454DE032B110F8013B013A83EA010313B1F8D119
S214454DF00020704701387047002D06BF35460338FA
S214454E00073815F0010F07D1013015F4807F02BF32
S214454E10013015F4C03F0130F0BC0138704700BF83
S214454E200A44914200F1FF3300D1704710B511F89E
S214454E30014B03F8014F9142F9D110BD884210B598
S214454E4001EB020402D98442234607D8431EA142F9
S214454E5008D011F8012B03F8012FF8E70244014664
S214454E608A4200D110BD13F8014D02F8014DF7E70F
S214454E7002440346934200D1704703F8011BF9E705
S214454E800CB400B59BB01CAB019105916FF0004189
S214454E9006910391074953F8042B049101A9009301
S214454EA000F008F9019B00221A701BB05DF804EB70
S214454EB002B070470802FFFF0EB400B59AB01BABB0
S214454EC0019005906FF00041094806910391094904
S214454ED053F8042B04910068009301A900F0EAF802
S214454EE0019B00221A701AB05DF804EB03B07047B8
S214454EF06C2340200802FFFF034611F8012B03F8F8
S214454F00012B002AF9D170472DE9F0478E689E425D
S214454F1082460C4690461F4638D88A8912F4906FCA
S214454F2032D025680969A5EB0109656905EB450594
S214454F3005EBD57501334B446D109D4238BF1D4674
S214454F40530531D5294600F095FB064650B90C2346
S214454F50CAF80030A38943F04003A3814FF0FF30E1
S214454F60BDE8F08721694A46FFF75AFFA38923F42F
S214454F70906343F08003A381266165614E44A5EBAB
S214454F8009052660A5603E46BE4200D93E462068D5
S214454F9032464146FFF752FFA3689B1BA360236832
S214454FA0334423600020DBE72A4600F0BDFB064677
S214454FB00028E1D12169504600F010FBC7E7936809
S214454FC02DE9F74F80460C461746002B61D0002347
S214454FD0D2F800A001939B46BBF1000F2BD0A668E4
S214454FE0B34542D3A28912F4906F3ED0206821691A
S214454FF06569A0EB010905EB450505EBD57509F196
S21445500001006D105844854238BF0546530545D5C1
S2144550102946404600F02EFB0646A0B90C23C8F8A4
S2144550200030A38943F04003A3810023C7E9013339
S2144550304FF0FF302FE0DAF80030DAF804B001938D
S2144550400AF1080AC8E74A462169FFF7E9FEA28938
S21445505022F4906242F08002A281266165614E4448
S214455060A5EB09052660A5605E465E4528BF5E46FB
S214455070324601992068FFF7E1FEA268921BA260BE
S214455080226832442260BA68A2EB0B03BB60002B51
S214455090D1D10020786003B0BDE8F08F2A4640465F
S2144550A000F042FB06460028D7D12169404600F06D
S2144550B095FAB3E72DE9F04F98468B891B069DB0C8
S2144550C007460D4614460ED50B6963B9402100F0D8
S2144550D0D1FA2860286120B90C233B604FF0FF3099
S2144550E0D1E040236B610023099320238DF82930B6
S2144550F0CDF80C803023DFF8A8818DF82A304FF0A4
S214455100010923469A4613F8012B0AB1252AF9D1F7
S214455110BAEB040B0BD05B46224629463846FFF7CA
S214455120F3FE013000F0AA80099A5A4409929AF88B
S2144551300030002B00F0A28000234FF0FF32CDE96F
S21445514005230AF1010A049307938DF853301A9301
S2144551505446052214F8011B5148FFF711FE049AE0
S214455160D8B9D00644BF20238DF85330110744BF25
S2144551702B238DF853309AF800302A2B15D0079AF2
S214455180544600204FF00A0C214611F8013B303BAF
S214455190092B4ED9B0B1079214E0A0EB080309FAE3
S2144551A003F313430493A246D2E7039B191D1B68DA
S2144551B00391002BBBBF5B4242F002020793079365
S2144551C0B8BF049223782E2B0CD163782A2B35D181
S2144551D0039B1A1D1B680392002BB8BF4FF0FF3385
S2144551E002340593DFF8C8A0217803225046FFF71E
S2144551F0C7FD40B14023A0EB0A0003FA00F0049B2C
S21445520003430134049314F8011B26488DF82810EF
S2144552100622FFF7B5FD002838D0234B1BBB039B62
S214455220073323F0070308330393099B3344099355
S21445523067E70CFB02320C460120A5E70023013444
S214455240059319464FF00A0C204610F8012B303AC4
S214455250092A03D9002BC5D00591C3E70CFB0121CC
S21445526004460123F0E703AB00932A460F4B04A9F7
S2144552703846AFF30080421C0646D6D1AB895B065E
S2144552803FF52CAF09981DB0BDE8F08F03AB0093F2
S2144552902A46064B04A9384600F07AF8EBE700BFE5
S2144552A0E48D4500EE8D450000000000094F4500A1
S2144552B0EA8D45002DE9F047164699468A680B69FA
S2144552C0DDF820809342B8BF1346336091F84320FB
S2144552D007460C460AB1013333602368990642BF38
S2144552E0336802333360256815F0060506D104F1A8
S2144552F0190AE36832689B1AAB4226DC94F84320C9
S214455300131E226818BF012392062BD404F14302CC
S21445531049463846C04701301ED02368E56832689E
S21445532003F00603042B08BFAD1AA36822690CBF19
S21445533025EAE57500259342C4BF9B1AED1800265D
S2144553401A34B5421AD1002008E001235246494690
S2144553503846C047013003D14FF0FF30BDE8F087EF
S2144553600135C6E7E1185A1C302081F8430022442F
S21445537094F8451082F843100233C7E701232246C6
S21445538049463846C0470130E6D00136D9E70000E1
S2144553902DE9FF470F7E0C9D782F914680460C469B
S2144553A09A4601F1430207D8622F0AD8002F00F02B
S2144553B0D880582F00F0A38004F1420584F8427047
S2144553C03AE0A7F16303152BF6D801A151F823F06F
S2144553D0295445003D544500B9534500B953450049
S2144553E0B9534500B95345003D544500B9534500AA
S2144553F0B9534500B9534500B9534500495545008D
S2144554006D5445002B554500B9534500B9534500E5
S2144554106B554500B95345006D544500B953450095
S214455420B9534500335545002B681A1D1B682A603D
S21445543004F1420584F842300123A3E02068296838
S214455440060601F104030AD50E682B60002E03DA22
S2144554502D23764284F843305E480A2319E00E68C9
S2144554602B6010F0400F18BF36B2EFE72B68206868
S214455470191D2960010601D51E6802E04606FBD5C2
S2144554801E8854486F2F0CBF08230A23002184F832
S21445549043106568A560002DA2BF216821F0040170
S2144554A021600EB9002D4DD01546B6FBF3F103FB32
S2144554B01167C75D05F8017D3746BB420E46F4D9F0
S2144554C0082B0BD12368DE0708D523696168994206
S2144554D0DEBF302305F8013C05F1FF35521B22613E
S2144554E0CDF800A04B4603AA21464046FFF7E2FE0C
S2144554F001304CD14FF0FF3004B0BDE8F087354859
S21445550081F845702968236851F8046B29601D06A3
S21445551014D5DF0744BF43F0200323601EB9236834
S21445552023F0200323601023B0E7236843F02003CD
S21445553023607823284884F84530E3E7590648BF72
S214455540B6B2E6E71546BBE72B6826686169181DBF
S214455550286035061B6801D5196002E07006FBD544
S2144555601980002323611546BAE72B681A1D2A6061
S2144555701D68626800212846FFF702FC08B1401BFB
S214455580606063682361002384F84330A8E7236995
S2144555902A4649464046D0470130ABD023689B074C
S2144555A013D4E068039B9842B8BF1846A4E7012386
S2144555B0324649464046D04701309BD00135E368E0
S2144555C003995B1AAB42F2DCEBE7002504F11906BA
S2144555D0F5E700BFF58D4500068E450037B5002931
S2144555E044D051F8043C0190002BA1F10404B8BF07
S2144555F0E41800F0CFF81E4A0198136833B9636083
S214455600146003B0BDE8304000F0C5B8A34208D9E1
S214455610256861198B4201BF19685B684919216085
S214455620EDE71A465B680BB1A342FAD911685518DF
S214455630A5420BD1246821445418A3421160E0D1F9
S2144556401C685B68536021441160DAE702D90C2375
S2144556500360D6E7256861198B4204BF19685B6805
S214455660636004BF491921605460CAE703B030BD82
S214455670DC214020F8B5CD1C25F0030508350C2D5A
S21445568038BF0C25002D064601DBA94203D90C235D
S21445569033600020F8BD00F07DF821490A681446BD
S2144556A09CB9204F3B6823B92146304600F062F846
S2144556B038602946304600F05DF8431C23D10C235C
S2144556C03360304600F067F8E3E723685B1B17D482
S2144556D00B2B03D923601C44256004E06368A24273
S2144556E00CBF0B605360304600F055F804F10B00D4
S2144556F0231D20F00700C21ACCD01B1AA350C9E7B9
S21445570022466468CCE7C41C24F00304A042E3D0D8
S214455710211A304600F02EF80130DDD1CFE700BF24
S214455720DC214020E0214020F8B5074614460E46C9
S21445573021B9BDE8F8401146FFF79CBF22B9FFF7EF
S2144557404DFF25462846F8BD00F026F8A0420FD264
S21445575021463846FFF78EFF05460028F2D03146EB
S2144557602246FFF75DFB31463846FFF737FFE9E748
S2144557703546E7E738B5064D0023044608462B6010
S21445578000F07CF8431C02D12B6803B1236038BD7A
S214455790E42140207047704751F8043C181F002B01
S2144557A0BCBF0B58C018704738B50C460968054647
S2144557B009B1FFF7F9FF21462846BDE83840FFF70F
S2144557C00DBF00002C4B1B68834270B5044651D074
S2144557D0436A43B1DB68002B4AD1636A196811B145
S2144557E02046FFF7FBFE616911B12046FFF7F6FE3E
S2144557F0616A11B12046FFF7F1FEA16B11B1204653
S214455800FFF7ECFEE16B11B12046FFF7E7FE216C92
S21445581011B12046FFF7E2FEE16D11B12046FFF7D4
S214455820DDFEA16D11B12046FFF7D8FE616B11B1C3
S2144558302046FFF7D3FEA369E3B1A36A20469847FF
S214455840A16CB9B12046BDE87040FFF7ADBF4959D8
S21445585041B90435636A802DD968F8D12046FFF7EB
S214455860BDFEBAE70E682046FFF7B8FE3146EFE7BD
S2144558700025EFE770BD00BF6C234020044A116841
S214455880034609B90349116010680344136070471D
S214455890E8214020D4234020FEE7FEE7FEE7FEE76A
S2144558A0FEE7FEE7FEE7FEE7FEE7FEE74FF0E0220F
S2144558B0D2F80C3D23F4E0631843C2F80C0D70474C
S2144558C04309012200F01F00403302FA00F04FF072
S2144558D0E02242F8230070474309012200F01F00EA
S2144558E0603302FA00F04FF0E02242F8230070479A
S2144558F0090100F1E020C9B280F8001470470000A5
S2144559002DE9F8431F4B00251E68B54207D11E4CAE
S21445591000262768B046BE4221D1BDE8F883D3E9C4
S2144559200101DA680024521A02F0030C9208A242DA
S21445593009D101EB820100EB82020020844508D89C
S21445594001350C33E1E751F8247040F824700134F2
S214455950EDE711F8014B013002F8014BEEE7D4E9CB
S214455960013500210136ED1A1846083425F00302A4
S2144559704FEA9509FFF77CFAAA0718BF40F8298031
S214455980C9E700BF20A845006CA84500144B0C226B
S214455990F0B5144D1E6802FB0533B54200D3F0BD85
S2144559A0D3E90101DA680024521A02F0030C920882
S2144559B0A24209D101EB820100EB82020020844518
S2144559C008D801350C33E8E751F8247040F82470C0
S2144559D00134EDE711F8014B013002F8014BEEE7D3
S2144559E020A84500030000007047FEE7A04B0021B5
S2144559F05B6813F0030F0CBF01200020F0B54B0089
S214455A00013103F18043F02903F51813B3F88028D4
S214455A1092B242EA0002A3F88028F0D14FF0E02285
S214455A20D2F8883D43F47003C2F8883DBFF34F8FE4
S214455A30BFF36F8F8F4B00248F491C60D9638F4906
S214455A408F4859608F49904D19649049996001F582
S214455A50800158648E48D8608E4898644FF0D85078
S214455A6018618D48D8648D4858618D4818658D48AD
S214455A7098618D4840EA45008C4D58658C48D861FC
S214455A808C4840EA45059D658B4D1D628B4D40EA29
S214455A904500D8654FF08040586289481866894861
S214455AA098624FF0CE405C66D862874898664FF05D
S214455AB0D04018638548D8664FF0604058638448A0
S214455AC0186799635C67BFF34F8FBFF36F8FD2F844
S214455AD0141D8F0303D4D2F8142DD60366D54FF084
S214455AE0E0210022C1F8842DBFF34F8FD1F8802DD9
S214455AF043F6E075C2F3C904C2F34E32520102EAD8
S214455B000507204647EA8076C1F8746FBFF34F8F86
S214455B100138F7D2203A12F1200FF0D1D1F8842D72
S214455B2042F00102C1F8842D0022C1F8502FBFF380
S214455B304F8FC1F8842DBFF34F8FD1F8802D43F694
S214455B40E0754FF0E021C2F3C904C2F34E3252016C
S214455B5002EA0507204647EA8076C1F8746FBFF328
S214455B604F8F0138F7D2203A12F1200FF0D1D1F8F5
S214455B70842D42F00102C1F8842D0022C1F8502F31
S214455B80BFF34F8FD1F8142D22F40032C1F8142DEF
S214455B90BFF34F8FBFF36F8FD1F8142D22F48032A9
S214455BA0C1F8142DBFF34F8FBFF36F8F00224FF010
S214455BB0E020114603EB8204E56BED070AD5C0F8F5
S214455BC0981D013153F82250C9B2C0F89C5DE46B6C
S214455BD0C0F8A04D01320F2AECD14FF0E023D3F8A0
S214455BE0942D42F00302C3F8942DBFF34F8FBFF3B5
S214455BF06F8F0022C3F8842DBFF34F8FD3F8802DC7
S214455C0043F6E074C2F3C900C2F34E32520102EACB
S214455C100406014646EA8175C3F8605FBFF34F8FB9
S214455C200139F7D2203A12F1200FF0D1BFF34F8F4A
S214455C30D3F8142D42F48032C3F8142DBFF34F8F9A
S214455C40BFF36F8FBFF34F8FBFF36F8F0022C3F83D
S214455C50502FBFF34F8FBFF36F8FD3F8142D42F4F9
S214455C600032C3F8142DBFF34F8FBFF36F8FF0BDCF
S214455C7000002640602140203F0004100000000040
S214455C802B000B071F00080311000000000045000D
S214455C900000001023000B1619000B16000000200C
S214455CA0210008030000402001C00B030F00000040
S214455CB00000432001000C13000044200D000000A6
S214455CC02DC00413000060401300041335000B0379
S214455CD02700041370472DE9F047B64D01210446C9
S214455CE0286001F0A7FC2B68002B40F03A81E67A45
S214455CF0B14FDFF8FC82DFF8FC92002E40F0388189
S214455D00A67BAE4FDFF8F082DFF8E892002E40F033
S214455D103F81A67AAA4FDFF8E482DFF8D892002EB4
S214455D2040F07E81667AA74FDFF8D482DFF8C492CA
S214455D30002E40F086813746DFF8A082DFF8C49211
S214455D40DFF8B0A2237ABB4200F28C810027DFF849
S214455D507482DFF8AC92DFF89CA2637ABB4200F20D
S214455D60938128680025022101F064FCE27BEBB2B2
S214455D709A4200F29B81944B1D78002D38D1012222
S214455D80924F294628461A707B689847BB688E20EE
S214455D908A4F98478E4B28461B6898478D4B284612
S214455DA01B689847874B28461B6898477B68284654
S214455DB09847BB68884F8E20984728463B68984743
S214455DC029467B688E209847844B7D4F28461B681E
S214455DD098477B6828469847BB688E209847764BF9
S214455DE028465B6898477E4B294628461B68984751
S214455DF001237C49E27C9A4200F262810025784F75
S214455E00DFF80482DFF8EC91637CAB4200F25F81F9
S214455E100025704FDFF8F481DFF8D891637BAB42FD
S214455E2000F2668100256A4FDFF8E481DFF8C49109
S214455E30237BAB4200F26C810025664FDFF8CC81B0
S214455E40DFF8B091637BAB4200F2728100255C4F70
S214455E50DFF8A881DFF89C91A37AAB4200F27981FE
S214455E6000255A4FDFF88481DFF88891A37CAB4242
S214455E7000F281810025534FDFF88481DFF8749165
S214455E80637AAB4200F2898100254D4FDFF86C817D
S214455E90DFF86091A37AAB4200F291810025474F27
S214455EA0DFF85481DFF84C91A37BAB4200F2998131
S214455EB0DFF8608101234C4F00258E210420BB70FE
S214455EC0D8F800303D707D70FD70984701F0DEFBD8
S214455ED0D8F800308E2105209847D8F800308E2116
S214455EE006209847DFF8D09001F0CEFBDFF800A1FA
S214455EF0D8F800308E21DFF8208107209847E37ACE
S214455F00AB4200F280813D78002D40F0B681324F9D
S214455F10DFF80881DFF8DC90237CAB4200F28D8108
S214455F202A4D324FDFF8CC80A37CB34200F29581F0
S214455F3020460421BDE8F04701F07CBB1422E06B07
S214455F40724301368358104403EBC3034B445B78D6
S214455F5018F803301B01FB589847A37CB342EDD88D
S214455F60C5E60026194FDFF88480DFF88890F4E709
S214455F70206A013E50F8363000EBC60003EBC303FB
S214455F804B445B7818F8033057F833309847B4E6F7
S214455F90013EE06A0C223301C35800EB061003EBC2
S214455FA0C3034B445B7818F803305343FB58984774
S214455FB0ACE600BF88224020F8A745005CA7450010
S214455FC0C8A7450020A745008C224020A8A7450025
S214455FD000A7450010A7450068A7450078A74500D7
S214455FE0F0A74500F8214020F4214020A4A645000E
S214455FF0B6A64500A6A14500C8A64500BFA64500CD
S214456000E3A64500DAA64500ADA64500ECA6450044
S214456010F5A6450050234020249F4500D1A64500BF
S214456020013E2822E069142172438358104403EB4D
S214456030C3034B445B7818F803304B43FB589847EB
S2144560406DE61421013EA06901FB06F28358104413
S21445605003EBC3034B445B7818F803304B43FB58BC
S214456060984765E60C21606901FB07F201378358BE
S214456070104403EBC30353445B7819F803304B4392
S21445608058F8033098475DE61421A06901FB07F2EE
S21445609001378358104403EBC30353445B7819F820
S2144560A0033001FB03835B68984756E6226B013550
S2144560B002EBC30152F83300496800F014FC55E67C
S2144560C0226C52F833208B540133DBB292E614220D
S2144560D0A06B29466A4301358358104403EBC30336
S2144560E04B445B7818F8033057F8233098478BE6CF
S2144560F00C22A06A6A4301358358104403EBC30358
S2144561004B445B7818F8033057F83330984785E6A4
S2144561100C22606A6A4301358358104403EBC30377
S2144561204B445B7818F8033057F8233098477FE69A
S2144561300C22A06A6A4301358358104403EBC30317
S2144561404B445B7818F8033007EBC3035B68984706
S21445615078E62822E06914216A43013583581044BD
S21445616003EBC3034B445B7818F8033001FB03731A
S2144561705B68984770E61422E06B29466A4301350A
S2144561808358104403EBC3034B445B7818F803303D
S21445619007EB03135B68984768E61421A06901FB83
S2144561A005F201358358104403EBC3034B445B7833
S2144561B018F8033001FB03739B68984760E628226E
S2144561C0E06914216A4301358358104403EBC30341
S2144561D04B445B7818F8033001FB0373DB6898473C
S2144561E058E6E06A2B010C22C35800EB0510013532
S2144561F003EBC3034B445B7818F8033002FB037389
S2144562005B68984750E6226A02EBC500436858F833
S2144562102330032B0ED052F83530194A03EBC3030F
S21445622013445B781AF8033009EBC3035B68984759
S214456230013564E601233B70FAE7606B50F835306C
S21445624000EBC500013503EBC3034B445B7818F8F8
S214456250033057F8333098475EE61422E06B7243B6
S21445626001368358104403EBC30343445B78FB5C19
S21445627005EB0313DB68984756E6BDE8F08700BF95
S214456280A6A145002DE9F0471F4F002502241F4EC5
S214456290DFF88880B378AB421CD864BB1C4F2546D4
S2144562A0DFF87C80DFF87C90DFF868A0F3789D42C5
S2144562B021D257F8040B0C2200EBC00353445B78FD
S2144562C019F8033002FB03839B689847012811D0D1
S2144562D00135EBE757F8040B0E4B00EBC0021344B1
S2144562E00D4A5B78D35C142202FB03839B68984770
S2144562F0012803D101242046BDE8F087022805F190
S214456300010508BF0024C5E7209F4500F42140202D
S2144563101C9F4500A6A14500BFA64500C8A7450049
S2144563205CA74500C8A645002DE9F0412F4D2B68D2
S2144563302BBBBDE8F0811B6A03EBC400426856F8E8
S2144563402220032A0CD153F83430294A03EBC303E1
S21445635013445B7818F8033007EBC3035B6898472C
S21445636001342B68DA7A9442E5D3224B1B78002B0E
S214456370DFD00024204E214FDFF8748013E0002440
S2144563801F4E204FDFF88880EBE7586B50F83430C7
S21445639000EBC400013403EBC30343445B78FB5C6A
S2144563A056F8333098472B681A7C9442EDD3002430
S2144563B0154E164FDFF838802868837C9C4204D3F8
S2144563C00421BDE8F04101F035B91422C06B6243A3
S2144563D001348358104403EBC30343445B78FB5CAA
S2144563E006EB0313DB689847E6E700BF88224020A4
