S0210000466C657843414E5F49705F4578616D706C655F5333324B3334342E73313932
S214502000A55AA55A010000000000000000305000FC
S21450201000000000003050000000000000000000EB
S214502020000000000000000000000000000000005B
S214502030000000000000000000000000000000004B
S214502040000000000000000000000000000000003B
S214502050000000000000000000000000000000002B
S21450300000F0422021345000C13B5000C33B5000DA
S214503010C53B5000C73B5000C93B50000000000065
S214503020000000000000000000000000CB3B5000F5
S214503030CD3B500000000000CF3B5000D13B50002D
S214503040D33B5000D33B5000D33B5000D33B5000B3
S214503050D33B5000D33B5000D33B5000D33B5000A3
S214503060D33B5000D33B5000D33B5000D33B500093
S214503070D33B5000D33B5000D33B5000D33B500083
S214503400D33B5000D33B500000BF00BF00BF00BFAF
S214503410FFF7FABF000000000000000000000000A8
S21450342072B64FF000004FF000014FF000024FF020
S21450343000034FF000044FF000054FF000064FF029
S21450344000074F4801684FF0807201EA02010029D8
S2145034501CD14C4801684FF0807241EA020101606D
S214503460494801684FF0010241EA020101604748AD
S21450347045F6F02101604AF20F510160404801685C
S2145034804FF0807201EA02010029F7D040484149C6
S2145034900160414801684FF00000814200D003E0CF
S2145034A03E4880F3088803E03D4880F3088822E0D1
S2145034B03C484CF2205101604DF6281101603A48C4
S2145034C03A4901600AE03A484CF2205101604DF604
S2145034D028110160374835490160FFE73648002813
S2145034E009D03649364A521A013A04DD00200023E4
S2145034F009C1083AFCDA3348002810D03249086827
S2145035004FF0010240EA020008603049304A521A31
S214503510013A04DD0020002309C1083AFCDA2D48A0
S214503520002810D02C4908684FF0010240EA0200EB
S21450353008602A492A4A521A013A04DD002000231C
S21450354009C1083AFCDA274800684FF05A318842D9
S214503550F9D0114801684FF00000814200D001E0D8
S21450356000F096FB00F02DFC62B600F027FC00F051
S2145035704BFA00BFFEE700BFAFF30080AFF300800A
S21450358010C32D4030C32D4004C32D4000C02D40E5
S21450359008ED00E0000043200400264000F04220E2
S2145035A0000043201000274000002740400000FF46
S2145035B010C0464000C046400100000000004020B9
S2145035C0004044200100000094EF00E0000000207E
S2145035D0000002200100000090EF00E00000000014
S2145035E00000010040014020034B5B68DBB203F053
S2145035F00303DBB2184670470000264000B585B07E
S21450360000238DF80F30904BD3F8143303F08073AB
S214503610002B3FD18C4BD3F834338B4A43F0807316
S214503620C2F83433884BD3F80033874A43F001034B
S214503630C2F80033844BD3F80433834A43F0010373
S214503640C2F8043303F07EFD6A4601A902A84CF284
S214503650503301F069FD009A01A902AB184601F0FB
S2145036607DFD03468DF80F30774BD3F8143303F0B7
S2145036708073002B06D19DF80F3083F00103DBB228
S214503680002BE8D19DF80F30002B03D007210120E6
S21450369001F03AFD6C4BD3F8143303F40013002BAF
S2145036A03FD1694BD3F83433674A43F40013C2F81A
S2145036B03433654BD3F80033634A43F00103C2F802
S2145036C00033614BD3F804335F4A43F00103C2F82A
S2145036D0043303F037FD6A4601A902A84CF2503372
S2145036E001F022FD009A01A902AB184601F036FD02
S2145036F003468DF80F30544BD3F8143303F40013AD
S214503700002B06D19DF80F3083F00103DBB2002B5F
S214503710E8D19DF80F30002B03D00521012001F091
S214503720F3FC494BD3F8143303F40023002B3FD15A
S214503730454BD3F83433444A43F40023C2F8343369
S214503740414BD3F80033404A43F00103C2F80033EC
S2145037503D4BD3F804333C4A43F00103C2F80433DC
S21450376003F0F0FC6A4601A902A84CF2503301F06F
S214503770DBFC009A01A902AB184601F0EFFC0346A9
S2145037808DF80F30304BD3F8143303F40023002B4E
S21450379006D19DF80F3083F00103DBB2002BE8D141
S2145037A09DF80F30002B03D00621012001F0ACFC11
S2145037B0254BD3F8143303F40043002B3FD1224B50
S2145037C0D3F83433204A43F40043C2F834331E4B04
S2145037D0D3F800331C4A43F00103C2F800331A4BA7
S2145037E0D3F80433184A43F00103C2F8043303F005
S2145037F0A9FC6A4601A902A84CF2503301F094FC89
S214503800009A01A902AB184601F0A8FC03468DF8B1
S2145038100F300D4BD3F8143303F40043002B06D16E
S2145038209DF80F3083F00103DBB2002BE8D19DF8F2
S2145038300F30002B03D08F21012001F065FC00BF14
S21450384005B05DF804FB00BF00C02D4082B00346B3
S2145038508DF807309DF80730DBB2002B01D100BE43
S214503860FDE700BF02B0704782B003468DF80730C0
S2145038709DF80730DBB2002B01D100BEFDE700BF3C
S21450388002B0704710B4EFF310831C462346184618
S2145038905DF8044B704710B4EFF310831C46234674
S2145038A018465DF8044B704710B4EFF310831C466F
S2145038B0234618465DF8044B704710B4EFF3108358
S2145038C01C46234618465DF8044B704782B00346A4
S2145038D08DF807309DF80730DBB2002B01D100BEC3
S2145038E0FDE700BF02B0704782B003468DF8073040
S2145038F09DF80730DBB2002B01D100BEFDE700BFBC
S21450390002B0704782B003468DF807309DF80730F6
S214503910DBB2002B01D100BEFDE700BF02B07047FE
S21450392000B587B004910392029303468DF8173082
S214503930049B002B26D108221549164800F0D6F8CD
S2145039400346002B0BD0144B0093144B144A002103
S214503950002005F04BFD134B01221A7013E0124B5A
S2145039601B781A460D4B1344104A00920C4A0021FD
S214503970002005F03BFD00230C4A0121002005F0F5
S214503980C5FD00E000BF00BF07B05DF804FB00BFF8
S214503990100C5100E40040200C004020EEFFC00008
S2145039A0240040202C014020D8004020DC0040203D
S2145039B008B501220E210E480CF0D4F901220C2134
S2145039C00C480CF0CFF90C4A0C49002005F084FC4A
S2145039D00B4B1B781A4645F265131344094A0121CE
S2145039E0002005F04FFD002006F0ECFD00BF08BD9E
S2145039F0081729401A172940681451004C024020D5
S214503A00D80040201400402000B583B02C4B1B78C3
S214503A10DBB2FF2B03D02A4B1B78DBB200E000232F
S214503A20284A1370284800F0A1FD284905200CF0BC
S214503A30ABFC6E2009F07EFE002225496E2009F070
S214503A406BFE244B00221A73234B00221A73FFF787
S214503A50AFFF224B0093224B1E4A0021002005F058
S214503A60C5FC00231F4A0121002005F04FFD154BD1
S214503A701B781A461A4B1344184A0092154A0021CE
S214503A80002005F0B3FC00214FF47A7000F055F892
S214503A90154B1B78DBB2002B00D1E8E700BF6E2039
S214503AA009F052FE002006F0ADFD002006F0FAFBAD
S214503AB000F071F80023184603B05DF804FB00BF11
S214503AC004005000D8004020880E51001C0C5100B5
S214503AD041D15000240040201400402004004020D3
S214503AE0EEFFC000DC0040202C01402086B0039042
S214503AF0029113468DF8073000238DF8173012E0E8
S214503B009DF81730039A13441A789DF81730029987
S214503B100B441B789A4201D000230BE09DF81730D7
S214503B2001338DF817309DF817209DF807309A42CC
S214503B30E6D30123184606B0704780B485B000AF70
S214503B40786039600023FB6019E00023BB6007E013
S214503B503B681B78DBB2002B08D1BB680133BB60D7
S214503B60BB6843F6D0029342F2D900E000BF3B68F0
S214503B701B78DBB2002B07D1FB680133FB60FB6878
S214503B807A689A42E1D800E000BF00BF1437BD46BD
S214503B905DF8047B704700B583B0084B1B680193F3
S214503BA0019B04331B680193019B43F0010301936F
S214503BB0019B984700BF03B05DF804FB0C00400023
S214503BC0FEE7FEE7FEE7FEE7FEE7FEE7FEE7FEE778
S214503BD0FEE7FEE782B001904FF0E023D3F80C3DAD
S214503BE023F4E0624FF0E021019B1343C1F80C3DF3
S214503BF000BF02B0704782B003468DF807309DF87C
S214503C00073003F01F034FF0E0219DF807205209BC
S214503C10D2B2104601229A4000F1400341F82320C8
S214503C2000BF02B0704782B003468DF807309DF84B
S214503C30073003F01F034FF0E0219DF8072052098C
S214503C40D2B2104601229A4000F1600341F8232078
S214503C5000BF02B0704784B003460A468DF807305E
S214503C6013468DF8063004238DF80F309DF8062045
S214503C709DF80F3002FA03F14FF0E0229DF807301E
S214503C80C9B213440A4683F8002400BF04B07047F4
S214503C908AB000230793002306930023099300233A
S214503CA00893444B0593444B0493059B1B6807931A
S214503CB0059B04330593059B0393002309933DE02E
S214503CC0099A13465B0013449B001A46039B134401
S214503CD05B680093099A13465B0013449B001A4690
S214503CE0039B13441B680193099A13465B001344C5
S214503CF09B001A46039B13449B681946099A134621
S214503D005B0013449B001A46039B13445B68CB1A14
S214503D100693002308930AE0009A089B1A440199D8
S214503D20089B0B4412781A70089B01330893089A24
S214503D30069B9A42F0D3099B01330993099A079B35
S214503D409A42BDD3049B1B680793049B0433049389
S214503D50049B02930023099324E0099BDB00029AFC
S214503D6013441B680193099BDB00029A13445B685B
S214503D701946099BDB00029A13441B68CB1A06931C
S214503D800023089307E0019A089B134400221A70F8
S214503D90089B01330893089A069B9A42F3D3099BD3
S214503DA001330993099A079B9A42D6D300BF00BFA6
S214503DB00AB07047982D5100CC2D510000BF704767
S214503DC0FEE700B58DB000230A93FFF70DFC0346BF
S214503DD08DF8253000238DF8273000238DF82630B7
S214503DE09DF82530002B02D0012B06D002E001238F
S214503DF00A9303E000230A9300E000BF00230B93CE
S214503E0013E0A54A0B9B03F5886332F813309AB239
S214503E100A9B9BB2A04913439AB20B9B03F5886347
S214503E2021F813200B9B01330B930B9BEF2BE8D9F8
S214503E304FF0E023D3F8883D4FF0E02243F4700370
S214503E40C2F8883DBFF34F8FBFF36F8F934B00225E
S214503E501A60934B934A1A60934A904B5A60904B11
S214503E60924A5A60924A8D4B9A608D4B914A9A600C
S214503E70914A8A4BDA608A4B904ADA60904A874B6E
S214503E801A61874B8F4A1A618F4A844B5A618F4BFF
S214503E90013B5A008E4B1343814A53618D4A7F4BE8
S214503EA09A618D4B013B5A008C4B13437C4A93616D
S214503EB08B4A7A4BDA618B4B013B5A00874B134344
S214503EC0774AD361754B4FF080421A62744B864ADC
S214503ED01A62724B854A5A62714B834A5A626F4BCA
S214503EE0834A9A626E4B804A9A626C4B4FF0CE422F
S214503EF0DA626B4B7F4ADA62684B4FF0D0421A63F5
S214503F00674B7D4A1A63654B4FF060425A63644B69
S214503F107A4A5A63BFF34F8FBFF36F8F4FF0E02349
S214503F20D3F8143D03F40033002B08D14FF0E023B0
S214503F30D3F8143D03F48033002B00F0A9800023FF
S214503F40059300230493002303934FF0E0230022AD
S214503F50C3F8842DBFF34F8F4FF0E023D3F8803D46
S214503F600593059B5B0BC3F30E030493059BDB087D
S214503F70C3F309030393049B5A0143F6E0731340BB
S214503F80039A92074FF0E0211343C1F8743FBFF3F2
S214503F904F8F039B5A1E0392002BECD1049B5A1E44
S214503FA00492002BE2D14FF0E023D3F8843D4FF03B
S214503FB0E02243F00103C2F8843D4FF0E023002294
S214503FC0C3F8502FBFF34F8F00BF00230893002332
S214503FD00793002306934FF0E0230022C3F8842D66
S214503FE0BFF34F8F4FF0E023D3F8803D0893089BE4
S214503FF05B0BC3F30E030793089BDB08C3F309035D
S2145040000693079B5A0143F6E0731340069A9207AD
S2145040104FF0E0211343C1F8743FBFF34F8F069B18
S2145040205A1E0692002BECD1079B5A1E0792002B65
S214504030E2D14FF0E023D3F8843D4FF0E02243F036
S2145040400103C2F8843D4FF0E0230022C3F8502FFE
S214504050BFF34F8F00BF4FF0E023D3F8143D4FF01F
S214504060E02223F40033C2F8143DBFF34F8FBFF362
S2145040706F8F4FF0E023D3F8143D4FF0E02223F437
S2145040808033C2F8143DBFF34F8FBFF36F8F00BF1E
S21450409000238DF827305EE0000026404000402088
S2145040A07C0040203F000410000000001F00040168
S2145040B0002050002B000B060000001023000516B1
S2145040C000000020210004010000402012000000E3
S2145040D001C00B03000043201000000001000C1329
S2145040E0000044200E000000290005130000204068
S2145040F0000040401300051335000B03270004133F
S2145041009DF827304F4A52F8233003F00103012B15
S2145041101CD14FF0E0229DF82630C2F8983D9DF80D
S21450412027304FF0E022484951F82330C2F89C3DE2
S2145041309DF827304FF0E022424951F82330C2F81C
S214504140A03D9DF8263001338DF826309DF8273057
S21450415001338DF827309DF827300E2BD0D94FF0ED
S214504160E023D3F8943D4FF0E02243F00103C2F829
S214504170943DBFF34F8FBFF36F8F002302930023FE
S2145041800193002300934FF0E0230022C3F8842DC0
S214504190BFF34F8F4FF0E023D3F8803D0293029B3E
S2145041A05B0BC3F30E030193029BDB08C3F30903B7
S2145041B00093019B5A0143F6E0731340009A92070E
S2145041C04FF0E0211343C1F8603FBFF34F8F009B81
S2145041D05A1E0092002BECD1019B5A1E0192002BC6
S2145041E0E2D1BFF34F8F4FF0E023D3F8143D4FF09A
S2145041F0E02243F48033C2F8143DBFF34F8FBFF331
S2145042006F8FBFF34F8FBFF36F8F4FF0E0230022B7
S214504210C3F8502FBFF34F8FBFF36F8F4FF0E0238D
S214504220D3F8143D4FF0E02243F40033C2F8143D67
S214504230BFF34F8FBFF36F8F00BF00BF0DB05DF859
S21450424004FB00BF7C0040204000402082B001901C
S214504250009100BF02B0704700B585B00190224B68
S2145042601B680221184602F0EDFF00238DF80F3030
S21450427014E09DF80F20019B413253F832009DF810
S2145042800F30019A4133DB0013445B68194601F046
S214504290AEFB9DF80F3001338DF80F30019BDB7B62
S2145042A09DF80F209A42E4D300F022F801238DF8AF
S2145042B00F300EE09DF80F20019BB63253F8323087
S2145042C00A499DF80F20CA549DF80F3001338DF8D7
S2145042D00F30019BDB7C9DF80F209A42EAD300BF3B
S2145042E000BF05B05DF804FB440140204C0140205F
S2145042F008B5274B1B7883F00103DBB2002B45D063
S214504300234B01221A70234B5B68002100209847EC
S214504310204B9B688F2098471E4BDB688F20984712
S2145043201C4B1B698F2098471B4B1B6800209847D7
S2145043301A4B1B6800209847194B1B68002098475B
S214504340184B5B6800209847164B9B688F20984701
S214504350154B1B6800209847134B5B6800218F2035
S2145043609847124B1B6800209847114B5B680020FB
S21450437098470F4B9B688F2098470E4B5B680020E2
S21450438098470D4B1B6800210020984700BF08BD7A
S214504390B8004020F82C5100582C51006C2C51007D
S2145043A07C2C5100B82C5100C42C5100D42C5100F8
S2145043B0282D5100582D5100502D510000B585B074
S2145043C00190019BDB7A039321E0039B013B019A0A
S2145043D00F33DB0013445A685B491346DB00134423
S2145043E00B4401331B781A46584B9B5C0293584A31
S2145043F0029B52F83330039A013A0F32D200019999
S2145044000A44043210469847039B013B0393039B90
S214504410002BDAD1019B9B7B039326E0039B013B49
S214504420019A1B01134403F5FC731A684649134658
S214504430DB0013440B4401331B781A46454B9B5CF8
S21450444002934549029A13465B0013449B000B4463
S2145044501B68039A013A120102F5FC7201990A444C
S21450446010469847039B013B0393039B002BD5D1E3
S214504470019B9B7A03932BE0039B5A1E019913468C
S2145044809B001344DB000B4454331A682E491346E2
S214504490DB0013440B4401331B781A462F4B9B5CAE
S2145044A002932F49029A13469B0013449B000B44D9
S2145044B01968039B5A1E13469B001344DB00503367
S2145044C0019A1344043318468847039B013B0393D1
S2145044D0039B002BD0D1019B5B7A03932BE0039B6D
S2145044E05A1E019913469B0013449B000B442C33D1
S2145044F01A6815491346DB0013440B4401331B78E6
S2145045001A46184B9B5C02931749029A13469B0017
S21450451013449B000B441968039B5A1E13469B007A
S21450452013449B002833019A134404331846884793
S214504530039B013B0393039B002BD0D100BF00BFCE
S21450454005B05DF804FB00BFC02051009C20510010
S214504550582D510084205100B82C51009020510005
S214504560282D5100602051007C2C510000B585B09C
S214504570019001230393019800F018F80A4B1B781A
S214504580002B0AD000F080FB0290029B002B06D135
S21450459000F0FEFB0023039301E000230393039BEC
S2145045A0184605B05DF804FB4801402010B584B0AD
S2145045B00190A04A019B13600121019802F042FE2F
S2145045C09C4B1B68002B34D0002303932BE001999F
S2145045D0039A13469B0013449B000B4403F2545318
S2145045E01A6895491346DB0013440B4401331B7875
S2145045F01A46924B9B5C02939149029A13465B0073
S2145046001344DB000B441968039A13469B0013446B
S2145046109B0003F5AA63019A13440433184688474F
S214504620039B01330393019B9B7C1A46039B934247
S214504630CDD30198FFF7C2FE0023039329E00199DA
S214504640039A13465B0013449B000B4414331A68BA
S21450465079491346DB0013440B4401331B781A4642
S214504660784B9B5C02937849029A13465B0013443E
S2145046709B000B441968039A13465B0013449B0037
S2145046801033019A1344043318468847039B01336A
S2145046900393019B1B7A1A46039B9342CFD3002366
S2145046A003932AE00199039A13469B0013449B00F8
S2145046B00B442C331A6860491346DB0013440B44F2
S2145046C001331B781A46614B9B5C02936049029AF1
S2145046D013469B0013449B000B4404331968039AFB
S2145046E013469B0013449B002833019A134404330B
S2145046F018468847039B01330393019B5B7A1A46FF
S214504700039B9342CED30198FFF7A6FD0023039355
S21450471027E00199039A13469B0013449B000B44D1
S21450472003F5A8631A6844491346DB0013440B4448
S21450473001331B781A46474B9B5C0293464A029BB2
S21450474052F82340039A13469B0013449B0003F5EC
S214504750A863019A134403991846A047039B013354
S2145047600393019B5B7C1A46039B9342D1D3002351
S214504770039327E00199039A13465B0013449B006A
S2145047800B4403F5F6731A682B491346DB001344A3
S2145047900B4401331B781A46304B9B5C0293304ACD
S2145047A0029B52F83310039A13465B0013449B0047
S2145047B003F5F473019A1344043318468847039B51
S2145047C001330393019B5B7B1A46039B9342D1D3E1
S2145047D00023039325E00199039A13465B00134484
S2145047E09B000B44E4331A6813491346DB0013440A
S2145047F00B4401331B781A461A4B9B5C02931A4A99
S214504800029B52F82310039A13465B0013449B00F6
S214504810E033019A1344043318468847039B013308
S2145048200393019B1B7B1A46039B9342D3D30023CF
S214504830039344E044014020C0205100B42051006E
S214504840F82C51006C205100D42C5100602051009F
S2145048507C2C5100A8205100502D5100542051005E
S2145048606C2C510048205100582C51000199039A45
S21450487013465B0013449B000B4403F5F6731A680B
S2145048809B491346DB0013440B4401331B781A46EE
S214504890984B9B5C0293984A029BDB0013445968E2
S2145048A0039A13465B0013449B0003F5F473019A76
S2145048B01344043318468847039B01330393019BE4
S2145048C05B7B1A46039B9342D0D3002303932AE084
S2145048D00199039A13469B001344DB000B44543350
S2145048E01A6883491346DB0013440B4401331B7884
S2145048F01A46824B9B5C02938149029A13469B0050
S21450490013449B000B4404331968039A13469B00C8
S2145049101344DB005033019A134404331846884737
S214504920039B01330393019B9B7A1A46039B934246
S214504930CED3002303932DE00199039A13469B0090
S21450494013449B000B4403F254531A6868491346A9
S214504950DB0013440B4401331B781A46694B9B5CAF
S21450496002936949029A13465B001344DB000B44DA
S21450497004331C68039A13469B0013449B0003F5AC
S214504980AA63019A1344043303991846A047039B1D
S21450499001330393019B9B7C1A46039B9342CBD3D4
S2145049A0002303932AE00199039A13469B0013446D
S2145049B09B000B442C331A684D491346DB001344B6
S2145049C00B4401331B781A46504B9B5C029350495C
S2145049D0029A13469B0013449B000B4408331968F5
S2145049E0039A13469B0013449B002833019A1344A2
S2145049F0043318468847039B01330393019B5B7A25
S214504A001A46039B9342CED3002303932AE0019980
S214504A10039A13469B001344DB000B4454331A6826
S214504A2033491346DB0013440B4401331B781A46B4
S214504A30324B9B5C02933249029A13469B001344B6
S214504A409B000B440C331968039A13469B0013447F
S214504A50DB005033019A1344043318468847039BAF
S214504A6001330393019B9B7A1A46039B9342CED302
S214504A700023039325E0019A039B1B01134403F57F
S214504A80FC731A681A491346DB0013440B4401336F
S214504A901B781A461F4B9B5C02931F49029A13467B
S214504AA05B0013449B000B4404331B68039A1201AB
S214504AB002F5FC7201990A4410469847039B01334D
S214504AC00393019B9B7B1A46039B9342D3D3134B72
S214504AD000221A70114B00225A70104B01229A7005
S214504AE00E4B0022DA7000F0D5FA0023039347E00D
S214504AF0C0205100542051006C2C51009020510081
S214504B00282D5100B4205100F82C5100602051003F
S214504B107C2C510084205100B82C51004801402074
S214504B20019A039B0F33DB0013449B684D4A52F89F
S214504B302330032B1ED0019A039B0F33DB00134404
S214504B405A6849491346DB0013440B4401331B781B
S214504B501A46464B9B5C0293454A029BDB00134425
S214504B605B68039A0F32D20001990A440432104609
S214504B70984702E03F4B01221A70039B0133039380
S214504B80019BDB7A1A46039B9342C9D3394B1B7859
S214504B9083F00103DBB2002B60D0002303931DE0AB
S214504BA0019B039A433253F832202F491346DB00B9
S214504BB013440B4401331B781A462F4B9B5C0293CD
S214504BC02E4A029B52F83330039A4332D200019950
S214504BD00A4410469847039B01330393019B1B7C62
S214504BE01A46039B9342DBD3002303932CE0019990
S214504BF0039A13469B0013449B000B4403F25453F2
S214504C001A6819491346DB0013440B4401331B78CA
S214504C101A461B4B9B5C02931A49029A13465B003A
S214504C201344DB000B4414331968039A13469B0055
S214504C3013449B0003F5AA63019A134404331846A1
S214504C408847039B01330393019B9B7C1A46039B27
S214504C509342CCD30421019802F0F4FA00BF04B07A
S214504C6010BD00BF9C275100C02051009C20510011
S214504C70582D51004801402078205100C42C510036
S214504C80B4205100F82C510000B587B0022305938C
S214504C90002304932CE0364A049B52F823203549CF
S214504CA01346DB0013440B4401331B781A46324B31
S214504CB09B5C03933149039A13469B0013449B0015
S214504CC00B4408331B682A49049A51F82220104690
S214504CD098470290029B012B02D1012305930DE0C9
S214504CE0029B022B01D100230593049B01330493AE
S214504CF0234B9B781A46049B9342CCD3059B002BA0
S214504D0030D10023049327E01E4A049B52F82320F8
S214504D1018491346DB0013440B4401331B781A46DC
S214504D20194B9B5C03931949039A13465B00134433
S214504D309B000B4408331B681249049A51F82220F2
S214504D40104698470190019B012B02D101230593F1
S214504D5008E0049B01330493094BDB781A46049B06
S214504D609342D1D3059B184607B05DF804FB00BFAD
S214504D70F8275100C020510090205100282D510096
S214504D8048014020FC27510084205100B82C510087
S214504D9000B583B0574B1B68002B00F0A68000234D
S214504DA001932EE0534B1A68019B0F33DB001344DC
S214504DB09B68514A52F82330032B1FD14D4B1A682B
S214504DC0019B0F33DB0013445A684C491346DB00F3
S214504DD013440B4401331B781A46494B9B5C009393
S214504DE0484A009BDB0013445B68424A1168019AAC
S214504DF00F32D2000A44043210469847019B0133C2
S214504E0001933C4B1B68DB7A1A46019B9342C9D3ED
S214504E103D4B1B78002B68D0002301931FE0354B89
S214504E201B68019A433253F8322034491346DB004C
S214504E3013440B4401331B781A46344B9B5C009347
S214504E40334A009B52F833302A4A1168019A43324B
S214504E50D2000A4410469847019B01330193254BD4
S214504E601B681B7C1A46019B9342D8D300230193A0
S214504E702EE0204B1968019A13469B0013449B0062
S214504E800B4403F254531A681C491346DB00134470
S214504E900B4401331B781A461E4B9B5C00931E49ED
S214504EA0009A13465B001344DB000B441433196816
S214504EB0104B1868019A13469B0013449B0003F549
S214504EC0AA630344043318468847019B0133019371
S214504ED0084B1B689B7C1A46019B9342C9D3054BD3
S214504EE01B680421184602F0ADF900BF03B05DF808
S214504EF004FB00BF440140209C275100C0205100B5
S214504F009C205100582D51004801402078205100D7
S214504F10C42C5100B4205100F82C510000B585B077
S214504F2001900D49019A1346DB0013440B4401339C
S214504F301B781A46094B9B5C03930949039A134600
S214504F405B001344DB000B4408331B6801989847FA
S214504F5000BF05B05DF804FBC0205100B4205100DE
S214504F60F82C510000B585B001900E49019A1346B1
S214504F70DB0013440B4401331B781A460A4B9B5CE8
S214504F8003930A49039A13465B001344DB000B4411
S214504F9010331B68019898470346184605B05DF8CD
S214504FA004FB00BFC0205100B4205100F82C510023
S214504FB000B585B001900D49019A1346DB001344A5
S214504FC00B4401331B781A46094B9B5C03930949E3
S214504FD0039A13465B001344DB000B440C331B68E8
S214504FE00198984700BF05B05DF804FBC0205100FB
S214504FF0B4205100F82C510082B00190024A019B17
S214505000136000BF02B070470000402000B585B066
S21450501001900C49019A1346DB0013440B440133AC
S2145050201B781A46084B9B5C0393084A039BDB008D
S21450503013445B6801210198984700BF05B05DF89E
S21450504004FB00BFC020510078205100C42C5100F2
S21450505000B585B001900C49019A1346DB00134405
S2145050600B4401331B781A46084B9B5C0393084A43
S214505070039BDB0013445B6800210198984700BFF0
S21450508005B05DF804FB00BFC020510078205100E9
S214505090C42C510000BF704708B5054B1B68022151
S2145050A0184602F0CFF802F062F800BF08BD00BF05
S2145050B04401402008B5054B1B680221184602F0F3
S2145050C0C1F802F05FF800BF08BD00BF44014020A1
S2145050D008B5054B1B680221184602F0B3F802F0DB
S2145050E063F800BF08BD00BF4401402008B5054B1B
S2145050F01B680221184602F0A5F802F05FF800BFC0
S21450510008BD00BF4401402000B583B00190009117
S214505110044B1B6800990198984700BF03B05DF890
S21450512004FB00BF0000402000B585B003900291FC
S21450513001920093002008F092FB0246039B1A60EF
S214505140029B00221A600021009808F0BEFB02461F
S214505150019B1A6000BF05B05DF804FB00B585B032
S2145051600390029101920021039808F08AFB0246B0
S214505170029B1B681A44029B1A60029B1B68019A8A
S2145051809A4294BF01230023DBB2184605B05DF85F
S21450519004FB00BF82B0019000BF02B0704700B55C
S2145051A08FB00190019B1A6873491346DB00134475
S2145051B00B441B780D93019B1A686F491346DB000E
S2145051C013440B4404331B780C93019B1A686A49AA
S2145051D01346DB0013440B4405331B780B93019B9B
S2145051E01A6865491346DB0013440B4402331B7898
S2145051F0624A1B01134408331B680A93019B1A68C2
S2145052005D491346DB0013440B4402331B785B4A5C
S2145052101B0113440C331B68099300238DF823306D
S214505220019B5B68002B2CD055490D9A13465B00AA
S21450523013449B000C9A134451F823300B9A0232B5
S21450524053F8223007930A9BDB43079A1340079381
S214505250019B5B685A1E099B9A400A9B1340079A0B
S2145052601343079346490D9A13465B0013449B001D
S2145052700C9A134451F823300B9A0232079943F88C
S214505280221003AA04A905A84CF25033FFF74CFF8E
S2145052903B490D9A13465B0013449B000C9A1344EB
S2145052A051F82330DB6B03F001030693039A04A9ED
S2145052B005AB1846FFF752FF03468DF82330069B82
S2145052C0012B06D19DF8233083F00103DBB2002B6F
S2145052D0DED19DF8233083F00103DBB2002B41D0A2
S2145052E0019B5B68002B1ED025490D9A13465B0028
S2145052F013449B000C9A134451F823300B9A0232F5
S21450530053F822101E480D9A13465B0013449B0018
S2145053100C9A134450F8233041F000410B9A023255
S21450532043F8221024E016490D9A13465B001344A6
S2145053309B000C9A134451F823300B9A023253F8C0
S21450534022100F480D9A13465B0013449B000C9A8C
S214505350134450F8233021F000410B9A023243F8A0
S214505360221005E0019B1B6819460120FFF7CCFE72
S21450537000BF0FB05DF804FBC0205100002851005C
S214505380B826510086B00190019B1A6826491346EC
S214505390DB0013440B441B780593019B1A68224983
S2145053A01346DB0013440B4405331B7804931F4A03
S2145053B0059B52F82330049A203253F822201B497A
S2145053C0059B51F8233022F00041049A203243F8CE
S2145053D02210019B5B68002B22D0144A059B52F882
S2145053E02330049A203253F822300393039B43F021
S2145053F000430393039B23F470230393019B5B6842
S214505400013B1B0403F47023039A13430393074A88
S214505410059B52F82330049A2032039943F8221001
S21450542000BF06B0704700BFC0205100F4265100A0
S21450543086B00190019B1A6814491346DB0013444A
S2145054400B441B780593019B5B68002B02D0019B95
S2145054505B6800E0012304930D4A059B52F8233005
S2145054609B680393039B23F0FC430393049B5B06C8
S21450547003F0FC43039A13430393054A059B52F8E3
S2145054802330039A9A6000BF06B07047C020510080
S214505490F426510000B58BB00190002309930023E9
S2145054A08DF82330019B5B68102B0CD0102B0DD839
S2145054B0012B02D0022B03D008E00323099306E009
S2145054C00123099303E00223099300E000BF099BE0
S2145054D0002B37D003AA04A905A84CF25033FFF787
S2145054E023FE1A4BD3F8883103F000430793039AF0
S2145054F004A905AB1846FFF731FE03468DF8233056
S214505500079BB3F1004F06D09DF8233083F001037C
S214505510DBB2002BE5D19DF8233083F00103DBB2DC
S214505520002B0FD00A4B5B6E0693069B23F00303AB
S2145055300693099B03F00303069A13430693044A03
S214505540069B536600BF0BB05DF804FB00C02D40B1
S21450555000C0394082B0019000BF02B0704784B09E
S2145055600190019B1A681E491346DB0013440B44F6
S2145055701B780393019B1A6819491346DB001344A2
S2145055800B4404331B780293019B5B68002B0CD0B2
S2145055901449039A13465B0013449B00029A134423
S2145055A051F8233001225A6317E00E49039A1346E6
S2145055B05B0013449B00029A134451F82330596BF6
S2145055C00848039A13465B0013449B00029A134400
S2145055D050F8233021F001025A6300BF04B07047E0
S2145055E0C0205100B826510000B58BB00190019BE9
S2145055F01A682D491346DB0013440B441B78099355
S214505600019B1A6828491346DB0013440B440433A5
S2145056101B78089300238DF81F30019B5B68002B86
S2145056203DD02249099A13465B0013449B00089AC2
S214505630134451F8233001229A6303AA04A905A8FB
S2145056404CF25033FFF770FD1849099A13465B0029
S21450565013449B00089A134451F82330DB6B03F035
S21450566001030693039A04A905AB1846FFF776FD87
S21450567003468DF81F30069B012B06D19DF81F3030
S21450568083F00103DBB2002BDED19DF81F30002BD8
S21450569005D0019B1B6819460120FFF735FD00BF5A
S2145056A00BB05DF804FB00BFC0205100B826510077
S2145056B082B0019000BF02B0704782B0019000BF28
S2145056C002B0704784B00190019B1A680A4913468D
S2145056D0DB0013440B441B780393084A039B52F891
S2145056E023301A680549039B51F8233022F00102F3
S2145056F01A6000BF04B07047C0205100EC2651001D
S21450570084B00190019B1A6814491346DB00134479
S2145057100B441B780393019B1B89002B1AD0019BCB
S2145057201B7BDA07019B5B891B0403F47F031A4338
S214505730019B9B7B1B01DBB21A43019B5B7B1B06C9
S21450574003F080731A430649039B51F8233042F006
S21450575001021A6000BF04B0704700BFC02051005D
S214505760EC26510000B589B0019000238DF81F300B
S214505770019B1A6825491346DB0013440B441B78DB
S2145057800693019B1B89002B3BD0019B5B7B002B18
S21450579037D0019B1B7B002B2DD102AA03A904A84E
S2145057A04CF25033FFF7C0FC194A069B52F8233090
S2145057B05B68DB0F03F001030593029A03A904AB61
S2145057C01846FFF7CBFC03468DF81F30059B002B81
S2145057D006D19DF81F3083F00103DBB2002BE3D1D6
S2145057E09DF81F30002B0CD0019B1B6819460120DA
S2145057F0FFF78AFC05E0019B1B6819460220FFF75D
S21450580083FC00BF09B05DF804FB00BFC020510008
S214505810EC26510084B001900B49019A1346DB00E8
S21450582013440B441B780393084A039B52F82330C7
S2145058301A680649039B51F8233022F001021A6079
S21450584000BF04B0704700BFC0205100EC26510086
S21450585084B00190019B1A680C491346DB00134430
S2145058600B441B780393019B1B89012B0BD1084AD1
S214505870039B52F823301A680549039B51F823308E
S21450588042F001021A6000BF04B07047C0205100B9
S214505890EC26510084B00190019B1A680A491346C1
S2145058A0DB0013440B441B780393084A039B52F8BF
S2145058B023301A680549039B51F8233022F0010221
S2145058C01A6000BF04B07047C0205100EC2651004B
S2145058D084B00190019B1A680C491346DB001344B0
S2145058E00B441B780393019B1B89002B0BD0019B09
S2145058F05B891B0403F47F020549039B51F8233050
S21450590042F001021A6000BF04B07047C020510038
S214505910EC26510000B589B0019000238DF81F3059
S214505920019B1A6825491346DB0013440B441B7829
S2145059300693019B1B89002B3BD0019B5B7B002B66
S21450594037D0019B1B7B002B2DD102AA03A904A89C
S2145059504CF25033FFF7E8FB194A069B52F82330B7
S2145059605B68DB0F03F001030593029A03A904ABAF
S2145059701846FFF7F3FB03468DF81F30059B002BA8
S21450598006D19DF81F3083F00103DBB2002BE3D124
S2145059909DF81F30002B0CD0019B1B681946012028
S2145059A0FFF7B2FB05E0019B1B6819460220FFF784
S2145059B0ABFB00BF09B05DF804FB00BFC020510030
S2145059C0EC26510082B0019000BF02B0704782B002
S2145059D0019000BF02B0704782B0019000BF02B085
S2145059E0704782B001900023184602B0704782B0CC
S2145059F00190009100BF02B07047000082B0019045
S214505A0000BF02B0704782B001900B468DF803304D
S214505A1000BF02B0704700B58BB0019000238DF8E0
S214505A202730019B1A6870491346DB0013440B4419
S214505A3006331B78DB006D4A13440893089B1B788B
S214505A400793089B5B780693089B5B680593019BBE
S214505A509B88002B62D0664A079B52F82330069AE2
S214505A6053F82220059B1340002B40F0B980604A23
S214505A70079B52F82330069A53F822105C4A079B2D
S214505A8052F82330059A1143069A43F82210594A81
S214505A90079B52F823301A685649079B51F8233013
S214505AA042F001021A60534A079B52F823305A6854
S214505AB05049079B51F8233042F001025A6001F0DA
S214505AC041FB02AA03A904A84CF25033FFF72CFB63
S214505AD0029A03A904AB1846FFF740FB03468DF81D
S214505AE02730454A079B52F82330069A53F822200F
S214505AF0059B1340002B06D19DF8273083F00103F9
S214505B00DBB2002BE4D19DF82730002B68D0019BE8
S214505B101B6819460120FFF7F7FA61E0344A079BE5
S214505B2052F82330069A53F82220059B1340002B38
S214505B3056D02F4A079B52F82330069A53F8221015
S214505B40059BDA432A48079B50F823301140069AA3
S214505B5043F82210274A079B52F823301A682549E3
S214505B60079B51F8233042F001021A60214A079BE6
S214505B7052F823305A681F49079B51F8233042F099
S214505B8001025A6001F0DEFA02AA03A904A84CF2F8
S214505B905033FFF7C9FA029A03A904AB1846FFF729
S214505BA0DDFA03468DF82730134A079B52F8233008
S214505BB0069A53F82220059B1340002B06D09DF8DA
S214505BC0273083F00103DBB2002BE4D19DF8273059
S214505BD0002B05D0019B1B6819460120FFF794FA4D
S214505BE000BF0BB05DF804FBC020510030295100B7
S214505BF078275100902751008427510000B585B072
S214505C0001900B468DF80330019B02939DF80330AC
S214505C10002B03D00023ADF80C3002E00123ADF882
S214505C200C3002AB1846FFF7F6FE00BF05B05DF825
S214505C3004FB00BF82B0019000BF02B0704782B034
S214505C40019000BF02B0704782B00190019B9B88C4
S214505C50002B06D0074B9B68064A43F0010393601F
S214505C6005E0044B9B68034A23F00103936000BF92
S214505C7002B0704700002D4082B00190044B9B68E4
S214505C80034A43F00103936000BF02B0704700BF61
S214505C9000002D4082B00190044B9B68034A23F0CD
S214505CA00103936000BF02B0704700BF00002D4054
S214505CB082B00190019B9B88002B06D0074BDB6877
S214505CC0064A43F48073D36005E0044BDB68034A0E
S214505CD023F48073D36000BF02B0704700802C401E
S214505CE082B00190044BDB68034A43F48073D36060
S214505CF000BF02B0704700BF00802C4082B00190B9
S214505D00044BDB68034A23F48073D36000BF02B0B1
S214505D10704700BF00802C4008B500F041FA00BF25
S214505D2008BD000082B0019000BF02B0704782B03C
S214505D300190009100BF02B0704782B0019000BF42
S214505D4002B0704782B0019000BF02B0704782B078
S214505D5001900323184602B0704700B58BB00190EF
S214505D603349019A1346DB0013440B4408331B781F
S214505D701B01304A13440993099BDB6808930023A0
S214505D808DF81F3008F0D8FD089B1B6803F0010300
S214505D90002B3AD003AA04A905A84CF25033FFF7BB
S214505DA0C3F9089B1B6903F010030693039A04A9D2
S214505DB005AB1846FFF7D2F903468DF81F30069B01
S214505DC0002B06D19DF81F3083F00103DBB2002B69
S214505DD0E7D19DF81F30002B04D001990120FFF722
S214505DE093F91EE0089B1B6823F00102089B1A607B
S214505DF0089B5B6923F00F02089B5A61089B1B693E
S214505E0043F00302089B1A610BE0089B5B6923F082
S214505E100F02089B5A61089B1B6943F00302089BBC
S214505E201A6108F0B7FD00BF0BB05DF804FB00BF69
S214505E30C02051001827510000B583B00190019B37
S214505E401B681846FFF789FF00BF03B05DF804FBD8
S214505E5090B001900091019B1A687B491346DB0075
S214505E6013440B4408331B781B01784A13440F9392
S214505E700F9BDB680E9300230D9300230C93002397
S214505E800B9300230A930023099300230893704A28
S214505E90009B52F82320019B1B791946019B9B6857
S214505EA05940019BDB685940019B1B684B409A4206
S214505EB000F0C280019B1B791A46019B9B685A4092
S214505EC0019BDB685A40019B1B685A406049009B07
S214505ED041F823205F4B1A680F9B5B685E49CB5C8A
S214505EE0B633DB0013445B685C4AA2FB03239B0972
S214505EF00D93584B1A680F9B9B685749CB5CB6332B
S214505F00DB0013445B68554AA2FB03239B090B93A3
S214505F10019BDB68514AA2FB03239B090C930D9B04
S214505F20002B00F089800B9B002B00F085800C9B8B
S214505F30002B00F081800D9A13465B001A440B9B91
S214505F40B2FBF3F3013307930D9A13469B001A44A2
S214505F500C9BB2FBF3F309330693069A079B9342C6
S214505F6038BF13460A930C9B0A9A02FB03F340F27F
S214505F70F33202FB03F309930D9B40F2C73202FB48
S214505F8003F30593099A059BB2FBF3F30493059B21
S214505F90049A02FB03F3099AD31A0393049A1346FE
S214505FA09B0013445B001946039A13469B00134408
S214505FB05B001A46059BB2FBF3F30B44043309937C
S214505FC00C9B0A9A02FB03F340F2DD3202FB03F30A
S214505FD008930D9A1346DB011344DB0013440593D4
S214505FE0089A059BB2FBF3F30493059B049A02FBB5
S214505FF003F3089AD31A0393049A13469B00134448
S2145060005B001946039A13469B0013445B001A46DE
S214506010059BB2FBF3F30B44033B08930A9A1346D3
S2145060209B0013445B001A460E9B5A600E9B099ABF
S2145060309A600E9B089ADA60019B9A680E9B5A618A
S21450604000BF10B0704700BFC02051001827510045
S214506050BC004020440140204C014020D34D6210EB
S21450606086B001900C49019A1346DB0013440B444A
S21450607008331B781B01094A13440593059BDB68BC
S2145060800493049B1B6903F003030393049B039A36
S2145060901A6100BF06B07047C02051001827510043
S2145060A088B001901D49019A1346DB0013440B44F7
S2145060B008331B781B011A4A13440693069BDB6869
S2145060C0059303230793059B1B6903F0030304936F
S2145060D0059B5B6903F003030393049A039B1340E9
S2145060E00493059B1B6803F00103002B11D0049BFF
S2145060F003F00203002B02D00123079309E0049B10
S21450610003F00103002B02D00223079301E0002383
S2145061100793079B184608B0704700BFC020510031
S2145061201827510084B00190019B1A6810491346F5
S214506130DB0013440B4408331B781B010D4A1344F1
S2145061400393039BDB680293019B1B79002B06D0BD
S214506150029B1B6843F00102029B1A6005E0029BFB
S2145061601B6823F00102029B1A6000BF04B0704700
S214506170C02051001827510084B003468DF80730D0
S2145061809DF80730054A52F823301B6903F0030385
S2145061900393039B184604B0704700BFF82651007F
S2145061A000B585B0002303932BE01A4A039B52F8A0
S2145061B023301B6903F003030293164A039B52F8DD
S2145061C02330029A1A61144B1B68002B16D0114AC2
S2145061D0039B52F823305B6903F003030193029A42
S2145061E0019B13400293029B002B07D00B4A039B44
S2145061F052F8233019460020FEF786FF039B0133E2
S2145062000393039B032BD0D900BF00BF05B05DF8A6
S21450621004FB00BFF82651004401402008275100D7
S21450622082B0019000BF02B0704782B00190002348
S214506230184602B0704782B0019000BF02B0704757
S21450624084B00190019B1A680A491346DB00134438
S2145062500B441B780393084A039B52F823301A6862
S2145062600549039B51F8233042F000421A6000BFA4
S21450627004B07047C0205100F426510084B00190FD
S214506280019B1A6839491346DB0013440B441B78AC
S2145062900393019B9B88002B65D0354A039B52F88D
S2145062A023309B680293029A324B13400293019B11
S2145062B05B7B1B0303F4E043019A127D1343029A5F
S2145062C0134302932A4A039B52F82330029A9A6049
S2145062D0274A039B52F823301B690293029A264B97
S2145062E013400293019B5B8AC3F30E03029A134337
S2145062F00293019B1B7F9B0703F08043029A134334
S21450630002931B4A039B52F82330029A1A61019B50
S2145063105B7D002B02D14FF0804200E00022019BB3
S2145063209B7D5B0703F000531A43019B5B8BC3F3C3
S2145063300A031A43019B1B8B1904104B0B40134343
S21450634002930B4A039B52F82330029ADA60084AAB
S214506350039B52F823301A680549039B51F82330A3
S21450636022F000421A6000BF04B07047C0205100AF
S214506370F4265100008FFFFF0080FFBF0000FF0390
S21450638000B58BB001900223099300238DF823307B
S2145063901F49019A1346DB0013440B441B7807939E
S2145063A01C4A079B52F823301B68002B29DB03AA94
S2145063B004A905A84CF25033FEF7B6FE154A079BC3
S2145063C052F823305B689B0803F001030693039A48
S2145063D004A905AB1846FEF7C1FE03468DF82330D8
S2145063E0069B002B06D19DF8233083F00103DBB2C9
S2145063F0002BE3D19DF82330002B04D001230993C2
S21450640001E000230993099B18460BB05DF804FB86
S214506410C0205100F426510084B00190019B1A68A8
S2145064200C491346DB0013440B441B780393019B23
S2145064309B88012B0BD1084A039B52F823301A68CD
S2145064400549039B51F8233022F000421A6000BFE2
S21450645004B07047C0205100F426510082B001901D
S214506460009100BF02B0704792B001900091019B1E
S214506470DA6891491346DB0013440B441B781A46DE
S2145064808E4B53F822300C93019B1A688A49134658
S214506490DB0013440B4407331B780B9300230A93FB
S2145064A00023099300231193854A009B52F823201A
S2145064B0019B1969019B5B685940019B1B685940B9
S2145064C0019BDB685940019B9B684B409A4200F009
S2145064D0F080019B1A69019B5B685A40019B1B68C0
S2145064E05A40019BDB685A40019B9B685A4074494E
S2145064F0009B41F82320019B1B69724AA2FB032391
S2145065009B0C0A93704B1A68704B5B78B633DB0063
S21450651013445B686B4AA2FB03239B0C0993019BB5
S2145065205B68019A926802FB03F3694A03FB02F226
S2145065300A9B40F6381101FB03F3B2FBF3F30893C2
S214506540089B1193634B1B68089A9A4203D2624B7E
S2145065501B6811931EE05F4B5B69089A9A4203D9F9
S2145065605D4B5B69119315E0012310930FE0109B70
S214506570013B584A52F82330089A9A4204D9564A50
S214506580109B52F823301193109B01331093109B9D
S214506590052BECD90A9B4FF4FA1203FB02F2099B27
S2145065A0119901FB03F3B2FBF3F24FF4FA11119B6E
S2145065B0B1FBF3F3D31A03F580730F934FF0804378
S2145065C00E9300230D9302E00E9B9B080E930E9A9B
S2145065D00F9B9A42F8D816E00D9A0E9B13440F9ACA
S2145065E09A420AD30D9A0E9B13440F9AD31A0F93BE
S2145065F00E9B5B000D9A13440D930D9B5B080D93F9
S2145066000E9B9B080E930E9B002BE5D10D9B9B007B
S214506610BF33DB090793019B9A68099B02FB03F380
S2145066200693119B079A02FB03F30593119B049361
S214506630119B079A02FB03F3079A013202FB03F3FE
S2145066405B0803F2E73303930A9B4FF47A7203FB1B
S21450665002F2099BB2FBF3F3013B0293069B9AB2FC
S2145066600C9B1A60049BDAB2059B1B0442EA03019A
S2145066700C980B9A13465B0013449B000344043358
S2145066801960029BC3F313010C980B9A13465B00D8
S21450669013449B00034408331960039BC3F3130150
S2145066A00C980B9A13465B0013449B0003440C3320
S2145066B0196000BF12B07047C0205100E826510044
S2145066C0CC00402083DE1B43440140204C01402038
S2145066D0A0860100640B51007C0B510082B00190E3
S2145066E000BF02B0704710B487B00190019B1A6883
S2145066F02A491346DB0013440B441B780593019B31
S2145067001A6826491346DB0013440B4404331B789F
S2145067100493019B1A6821491346DB0013440B442B
S21450672002331B781E4A1B0113441B6803931D49F2
S214506730059A13465B0013449B00049A134451F881
S214506740233019681748059A13465B0013449B007C
S214506750049A134450F8233041F008021A60114945
S214506760059A13465B0013449B00049A134451F851
S21450677023301868039BD9430A4C059A13465B008E
S21450678013449B00049A134454F8233000EA010241
S2145067901A6000BF07B05DF8044B7047C020510028
S2145067A000285100B826510000B58DB00190019BCD
S2145067B01A6896491346DB0013440B441B780B9318
S2145067C0019B1A6891491346DB0013440B4404336B
S2145067D01B780A93019B5B688D4A32F813300993F5
S2145067E0019B1A6889491346DB0013440B44023355
S2145067F01B78884A1B0113441B680893019B1A6830
S21450680082491346DB0013440B4402331B78814AFB
S2145068101B01134404331B68079300238DF81B3069
S2145068207D490B9A13465B0013449B000A9A134407
S21450683051F823305A68089B1A40079B22FA03F3F4
S214506840099A9A4200F0DE8002AA03A904A84CF2E4
S2145068505033FEF769FC029A03A904AB1846FEF7BC
S2145068607DFC03468DF81B306B490B9A13465B0034
S21450687013449B000A9A134451F823305B6803F480
S2145068808033B3F5803F06D19DF81B3083F001036B
S214506890DBB2002BDFD19DF81B3083F00103DBB257
S2145068A0002B00F0A9805C490B9A13465B001344FA
S2145068B09B000A9A134451F823301B680593089B93
S2145068C0DB43059A13400593099A079B9A40089B09
S2145068D01340059A13430593059B43F00403059311
S2145068E04D490B9A13465B0013449B000A9A134477
S2145068F051F82330059A1A6002AA03A904A84CF24C
S2145069005033FEF711FC029A03A904AB1846FEF763
S21450691025FC03468DF81B303F490B9A13465B0007
S21450692013449B000A9A134451F823305B6803F0D3
S2145069300403002B06D19DF81B3083F00103DBB215
S214506940002BE0D19DF81B3083F00103DBB2002B07
S2145069504BD002AA03A904A84CF25033FEF7E4FB2E
S214506960029A03A904AB1846FEF7F8FB03468DF8C7
S2145069701B3029490B9A13465B0013449B000A9A16
S214506980134451F823305B6803F48033B3F5803FEB
S21450699006D19DF81B3083F00103DBB2002BDFD10C
S2145069A09DF81B3083F00103DBB2002B16D01A493A
S2145069B00B9A13465B0013449B000A9A134451F8F3
S2145069C023305B685B0C03F00703012B1AD0019B46
S2145069D01B6819460320FEF797FB13E0019B1B68C4
S2145069E019460120FEF790FB0CE0019B1B681946E8
S2145069F00120FEF789FB05E0019B1B681946012024
S214506A00FEF782FB00BF0DB05DF804FBC0205100BE
S214506A105826510000285100B826510010B487B0AF
S214506A200190019B1A682B491346DB0013440B4414
S214506A301B780593019B1A6826491346DB001344BE
S214506A400B4404331B780493019B1A682149134660
S214506A50DB0013440B4402331B781F4A1B011344BC
S214506A601B6803931D49059A13465B0013449B000D
S214506A70049A134451F8233019681848059A134657
S214506A805B0013449B00049A134450F8233041F0A3
S214506A9008021A601149059A13465B0013449B007E
S214506AA0049A134451F823301868039BD9430B4C6F
S214506AB0059A13465B0013449B00049A134454F8FB
S214506AC0233000EA01021A6000BF07B05DF8044B9D
S214506AD0704700BFC020510000285100B826510012
S214506AE000B58DB00190019B1A6896491346DB009D
S214506AF013440B441B780B93019B1A689149134619
S214506B00DB0013440B4404331B780A93019B5B68E9
S214506B108D4A32F813300993019B1A6889491346F7
S214506B20DB0013440B4402331B78884A1B01134482
S214506B301B680893019B1A6882491346DB0013446E
S214506B400B4402331B78814A1B01134404331B68E1
S214506B50079300238DF81B307D490B9A13465B0034
S214506B6013449B000A9A134451F823305A68089BE2
S214506B701A40079B22FA03F3099A9A4200F0DE80E5
S214506B8002AA03A904A84CF25033FEF7CDFA029A93
S214506B9003A904AB1846FEF7E1FA03468DF81B30FE
S214506BA06B490B9A13465B0013449B000A9A134496
S214506BB051F823305B6803F48033B3F5803F06D139
S214506BC09DF81B3083F00103DBB2002BDFD19DF81C
S214506BD01B3083F00103DBB2002B00F0A9805C4928
S214506BE00B9A13465B0013449B000A9A134451F8C1
S214506BF023301B680593089BDB43059A1340059387
S214506C00099A079B9A40089B1340059A134305938D
S214506C10059B43F0070305934D490B9A13465B00BB
S214506C2013449B000A9A134451F82330059A1A606D
S214506C3002AA03A904A84CF25033FEF775FA029A3A
S214506C4003A904AB1846FEF789FA03468DF81B30A5
S214506C503F490B9A13465B0013449B000A9A134411
S214506C6051F823305B6803F00403002B06D19DF8DF
S214506C701B3083F00103DBB2002BE0D19DF81B30B4
S214506C8083F00103DBB2002B4BD002AA03A904A861
S214506C904CF25033FEF748FA029A03A904AB184652
S214506CA0FEF75CFA03468DF81B3029490B9A1346BB
S214506CB05B0013449B000A9A134451F823305B68D8
S214506CC003F48033B3F5803F06D19DF81B3083F034
S214506CD00103DBB2002BDFD19DF81B3083F001039C
S214506CE0DBB2002B16D01A490B9A13465B0013449E
S214506CF09B000A9A134451F823305B685B0C03F0F0
S214506D000703012B1AD0019B1B6819460320FEF778
S214506D10FBF913E0019B1B6819460120FEF7F4F9B6
S214506D200CE0019B1B6819460120FEF7EDF905E0C3
S214506D30019B1B6819460120FEF7E6F900BF0DB00F
S214506D405DF804FBC0205100582651000028510021
S214506D50B826510000B58DB00190019B1A685E4967
S214506D601346DB0013440B441B780B93019B1A68A5
S214506D7059491346DB0013440B4404331B780A93DB
S214506D80019B1B68554AD35C0993019B1A6852496C
S214506D901346DB0013440B4402331B78504A1B0146
S214506DA013441B680893019B1A684B491346DB0033
S214506DB013440B4402331B78494A1B0113440433D3
S214506DC01B68079300238DF81B3046490B9A1346D1
S214506DD05B0013449B000A9A134451F823301968F9
S214506DE040480B9A13465B0013449B000A9A134480
S214506DF050F8233041F00C021A6002AA03A904A8E6
S214506E004CF25033FEF790F9029A03A904AB184699
S214506E10FEF7A4F903468DF81B3032490B9A1346F9
S214506E205B0013449B000A9A134451F823305B6866
S214506E3003F40033B3F5003F06D19DF81B3083F0C2
S214506E400103DBB2002BDFD19DF81B3083F001032A
S214506E50DBB2002B3CD023490B9A13465B001344FD
S214506E609B000A9A134451F823301B680593089BDD
S214506E70DB43059A13400593099A079B9A40089B53
S214506E801340059A1343059316490B9A13465B0015
S214506E9013449B000A9A134451F82330059A1A60FB
S214506EA010490B9A13465B0013449B000A9A1344EE
S214506EB051F8233019680B480B9A13465B0013445D
S214506EC09B000A9A134450F8233021F00C021A60A3
S214506ED000BF0DB05DF804FBC0205100C82551001E
S214506EE000285100B826510000B58DB00190019B86
S214506EF01A687B491346DB0013440B441B780B93EC
S214506F00019B1A6876491346DB0013440B4404333E
S214506F101B780A93019B5B68724A32F813300993C8
S214506F20019B1A686E491346DB0013440B44023328
S214506F301B786D4A1B0113441B680893019B1A6803
S214506F4067491346DB0013440B4402331B78664AEA
S214506F501B01134404331B68079300238DF81B3022
S214506F6062490B9A13465B0013449B000A9A1344DB
S214506F7051F8233019685D480B9A13465B0013444A
S214506F809B000A9A134450F8233041F00C021A60C2
S214506F9002AA03A904A84CF25033FEF7C5F8029A89
S214506FA003A904AB1846FEF7D9F803468DF81B30F4
S214506FB04E490B9A13465B0013449B000A9A13449F
S214506FC051F823305B6803F40033B3F5003F06D125
S214506FD09DF81B3083F00103DBB2002BDFD19DF808
S214506FE01B3083F00103DBB2002B6ED03F490B9A67
S214506FF013465B0013449B000A9A134451F82330FF
S2145070001B680593089BDB43059A13400593099A22
S214507010079B9A40089B1340059A134305933349A0
S2145070200B9A13465B0013449B000A9A134451F87C
S2145070302330059A1A602D490B9A13465B00134469
S2145070409B000A9A134451F82330196827480B9A24
S21450705013465B0013449B000A9A134450F823309F
S21450706021F00C021A6002AA03A904A84CF250336D
S214507070FEF75AF8029A03A904AB1846FEF76EF8C4
S21450708003468DF81B3019490B9A13465B00134480
S2145070909B000A9A134451F823305B6803F400337C
S2145070A0B3F5003F06D09DF81B3083F00103DBB2EA
S2145070B0002BDFD19DF81B30002B0CD0019B1B689A
S2145070C019460320FEF720F805E0019B1B68194679
S2145070D00120FEF719F800BF0DB05DF804FB00BFA5
S2145070E0C02051005826510000285100B8265100A3
S2145070F000B583B00190019800F004F800BF03B0CB
S2145071005DF804FB84B00190019B5B680B4A32F833
S214507110133003930A4B5B680293029B23F440534D
S2145071200293039B1B0303F44053029A13430293A8
S214507130034A029B536000BF04B070478826510034
S21450714000802840044B45F6F0221A60024B4AF263
S2145071500F521A6000BF704700C02D4000B583B074
S2145071600190FCF74BFA00BF03B05DF804FB08B57E
S214507170034B1B689B680120984700BF08BD00BFA3
S214507180E001402000B585B00123ADF80830054B2E
S2145071901B685B6801AA1046984700BF05B05DF8AB
S2145071A004FB00BFE001402008B5034B1B689B68FA
S2145071B00320984700BF08BDDC01402000B585B0CD
S2145071C00123ADF80830054B1B685B6801AA1046D2
S2145071D0984700BF05B05DF804FB00BFDC014020B7
S2145071E0104B1B7883F00103DBB2002B18D00D4BED
S2145071F001221A700C4B9B781A4613465B001344B8
S2145072009B000A4A13440A4A1360074B5B781A4697
S21450721013465B0013449B00044A1344054A13600C
S21450722000BF7047D00040206C205100D42C510035
S214507230DC014020E001402082B00190009100BF68
S21450724002B0704700B583B001900091009B012BAF
S21450725005D0009B022B06D1FFF7C2FF04E0019831
S214507260FFF77CFF00E000BF00BF03B05DF804FBF3
S21450727000BF704710B584B00446084611461A46FB
S2145072802346ADF8063003468DF805300B468DF88C
S214507290043013468DF80330FCF7A6F903460393E3
S2145072A00D49039BBDF8062021F813200B4A039B7B
S2145072B013449DF805201A70094A039B13449DF801
S2145072C004201A70074A039B13449DF803201A7033
S2145072D00023184604B010BD9004432010044320E9
S2145072E01C0443202804432010B584B004460846A6
S2145072F011461A462346ADF8063003468DF805303B
S2145073000B468DF8043013468DF80330FCF76CF9B5
S214507310034603930D49039BBDF8062021F813201E
S2145073200B4A039B13449DF805201A70094A039B89
S21450733013449DF804201A70074A039B13449DF883
S21450734003201A700023184604B010BDA40443202E
S21450735034044320400443204C04432010B584B0EA
S2145073600446084611461A462346ADF806300346EC
S2145073708DF805300B468DF8043013468DF80330E3
S214507380FCF732F9034603930D49039BBDF80620DC
S21450739021F813200B4A039B13449DF805201A70BE
S2145073A0094A039B13449DF804201A70074A039B0E
S2145073B013449DF803201A700023184604B010BDDD
S2145073C07C04432058044320640443207004432024
S2145073D000BF704710B584B00446084611461A469A
S2145073E02346ADF8063003468DF805300B468DF82B
S2145073F0043013468DF8033000238DF80F30FCF719
S214507400F3F803460293224A029B32F81330BDF833
S21450741006209A4219D11F4A029B13441B789DF8A6
S21450742005209A4211D11C4A029B13441B789DF8A2
S21450743004209A4209D1194A029B13441B789DF89E
S21450744003209A4201D1012300E000238DF80F302B
S2145074509DF80F3003F001038DF80F300C4A029B55
S214507460002122F813100B4A029B134400221A7074
S214507470094A029B134400221A70084A029B13447E
S21450748000221A709DF80F30184604B010BD00BF89
S21450749090044320100443201C0443202804432017
S2145074A010B584B00446084611461A462346ADF831
S2145074B0063003468DF805300B468DF804301346DB
S2145074C08DF8033000238DF80F30FCF78DF8034607
S2145074D00293224A029B32F81330BDF806209A4295
S2145074E019D11F4A029B13441B789DF805209A42D7
S2145074F011D11C4A029B13441B789DF804209A42D3
S21450750009D1194A029B13441B789DF803209A42CE
S21450751001D1012300E000238DF80F309DF80F3085
S21450752003F001038DF80F300C4A029B002122F81D
S21450753013100B4A029B134400221A70094A029BEE
S214507540134400221A70084A029B134400221A70F1
S2145075509DF80F30184604B010BD00BFA404432059
S21450756034044320400443204C04432010B584B0D8
S2145075700446084611461A462346ADF806300346DA
S2145075808DF805300B468DF8043013468DF80330D1
S21450759000238DF80F30FCF727F803460293224A53
S2145075A0029B32F81330BDF806209A4219D11F4A72
S2145075B0029B13441B789DF805209A4211D11C4A11
S2145075C0029B13441B789DF804209A4209D1194A0D
S2145075D0029B13441B789DF803209A4201D1012345
S2145075E000E000238DF80F309DF80F3003F00103B4
S2145075F08DF80F300C4A029B002122F813100B4ACC
S214507600029B134400221A70094A029B134400221C
S2145076101A70084A029B134400221A709DF80F30C5
S214507620184604B010BD00BF7C04432058044320C5
S214507630640443207004432000B583B000238DF8C3
S2145076400730FBF7D1FF03460093244A009B32F8DD
S2145076501330002B11D1224A009B13441B78002B69
S2145076600BD1204A009B13441B78002B05D11E4A91
S214507670009B13441B78002B01D0012300E000230D
S2145076808DF807309DF8073003F001038DF807306A
S214507690124A009B002122F81310114A009B1344F3
S2145076A000221A700F4A009B134400221A700E4A8A
S2145076B0009B134400221A709DF80730002B14BF0D
S2145076C001230023DBB283F00103DBB203F0010396
S2145076D0DBB2184603B05DF804FB00BF90044320AD
S2145076E0100443201C0443202804432000B583B0D4
S2145076F000238DF80730FBF777FF03460093244AA4
S214507700009B32F81330002B11D1224A009B1344B1
S2145077101B78002B0BD1204A009B13441B78002B60
S21450772005D11E4A009B13441B78002B01D0012321
S21450773000E000238DF807309DF8073003F0010372
S2145077408DF80730124A009B002122F81310114A78
S214507750009B134400221A700F4A009B13440022C9
S2145077601A700E4A009B134400221A709DF8073078
S214507770002B14BF01230023DBB283F00103DBB2DE
S21450778003F00103DBB2184603B05DF804FB00BFFC
S214507790A404432034044320400443204C04432094
S2145077A000B583B000238DF80730FBF71DFF034666
S2145077B00093244A009B32F81330002B11D1224AF2
S2145077C0009B13441B78002B0BD1204A009B13447C
S2145077D01B78002B05D11E4A009B13441B78002BA8
S2145077E001D0012300E000238DF807309DF80730C4
S2145077F003F001038DF80730124A009B002122F84F
S2145078001310114A009B134400221A700F4A009B13
S214507810134400221A700E4A009B134400221A701A
S2145078209DF80730002B14BF01230023DBB283F0F2
S2145078300103DBB203F00103DBB2184603B05DF878
S21450784004FB00BF7C0443205804432064044320B8
S2145078507004432082B001900091019B009A9A6474
S21450786000BF02B0704784B001900B468DF80330CD
S21450787013468DF80230019BD3F8003C0393039BCC
S21450788023F41F4303939DF80330002B0BD0039B28
S21450789043F4004303939DF802301B0203F4F8535D
S2145078A0039A13430393019B039AC3F8002C00BF1B
S2145078B004B0704784B001900B468DF803301346E1
S2145078C08DF80230019BD3F8FC3B0393039A0D4B83
S2145078D0134003939DF80330002B0BD0039B43F0CB
S2145078E0004303939DF802301B0403F4FE03039AEF
S2145078F013430393019B039AC3F8FC2B00BF04B0B9
S214507900704700BFFFFF807F82B00190019B1B68CD
S214507910DB43DB0FDBB2184602B0704782B00190F3
S214507920019B5B6B43F00052019B5A63019B002204
S214507930C3F8E02A019B0022C3F8E02A019BD3F843
S214507940E03A43F48072019BC3F8E02A019B5B6BDC
S21450795023F00052019B5A6300BF02B0704782B0BA
S21450796001900B468DF8033013468DF80230019B7C
S2145079701B6823F400639DF80320002A02D04FF4BE
S214507980006200E000221A43019B1A60019BD3F864
S214507990003C23F000439DF80220002A02D04FF00E
S2145079A0004200E000221A43019BC3F8002C019BC2
S2145079B0D3F8003C23F41F42019BC3F8002C00BFB1
S2145079C002B0704782B001900B468DF80330019B91
S2145079D05B6823F008039DF80320002A01D0082294
S2145079E000E000221A43019B5A6000BF02B0704765
S2145079F082B00190019B9B6800BF02B0704784B074
S214507A0001900091009B03F01F03012202FA03F33A
S214507A100393009B1F2B03D8019B039A1A630CE019
S214507A20009B3F2B03D8019B039ADA6205E0009B2C
S214507A305F2B02D8019B039A5A6700BF04B0704769
S214507A4084B00190009100230393009B1F2B0FD806
S214507A50019B1A6B009B03F01F03012101FA03F3ED
S214507A601A40009B03F01F0322FA03F3039324E00B
S214507A70009B3F2B0FD8019BDA6A009B03F01F0335
S214507A80012101FA03F31A40009B03F01F0322FA68
S214507A9003F3039311E0009B5F2B0ED8019B5A6FA4
S214507AA0009B03F01F03012101FA03F31A40009BC9
S214507AB003F01F0322FA03F30393039BDBB218462B
S214507AC004B0704784B00190009100230393009B4C
S214507AD01F2B0FD8019B9A6A009B03F01F030121AE
S214507AE001FA03F31A40009B03F01F0322FA03F334
S214507AF0039324E0009B3F2B0FD8019B5A6A009BB0
S214507B0003F01F03012101FA03F31A40009B03F010
S214507B101F0322FA03F3039311E0009B5F2B0ED84A
S214507B20019BDA6E009B03F01F03012101FA03F359
S214507B301A40009B03F01F0322FA03F30393039BA0
S214507B40DBB2184604B0704782B001900091019B9A
S214507B50D3F8042C144B1340019AC2F8043C019BF2
S214507B60D3F8042C009B1B689B0203F4F841009B3F
S214507B709B6803F007031943009B5B685B01DBB20D
S214507B801943009BDB681805084B03401943009BBC
S214507B901B691B0403F4E0230B431A43019BC3F8F1
S214507BA0042C00BF02B07047188308C00000F03F96
S214507BB082B001900091019B5A684FF6F8731340BB
S214507BC0019A5360019B5A68009B1B6803F007019B
S214507BD0009B9B681B0403F4E0231943009B5B68DF
S214507BE0DB0403F460131943009BDB681B06194340
S214507BF0009B1B699B0503F440030B431A43019BF0
S214507C005A6000BF02B0704782B001900091019B4D
S214507C101B6D03F00042019B1A65019B1A6D009B79
S214507C201B689B0299B2009B9B6803F01F03194385
S214507C30009B5B685B0103F478731943009BDB6819
S214507C405805074B03401943009B1B691B0403F45C
S214507C50F8130B431A43019B1A6500BF02B07047D6
S214507C600000E07F82B001900091019BD3F8F42B86
S214507C701A4B1340019AC2F8F43B019BD3F8F42BED
S214507C80009B5968009B1B680B440133D9B2009B7C
S214507C909B681B0303F4FE231943009B1B699B053B
S214507CA003F0FE530B431A43019BC3F8F42B019B7E
S214507CB0D3F8F02B0A4B1340019AC2F8F03B019BC5
S214507CC0D3F8F02B009BDB68C3F309031A43019BE0
S214507CD0C3F8F02B00BF02B0704700BF000F38E06B
S214507CE000FCFFFF82B001900091009B00221A60BA
S214507CF0019BD3F8F03BC3F30902009BDA60019B6B
S214507D00D3F8F43BDAB2009B5A60019BD3F8F43BAD
S214507D101B0B03F07F02009B9A60019BD3F8F43B49
S214507D209B0D03F07F02009B1A6100BF02B07047A4
S214507D3082B001900091019BD3F8F82B1A4B134058
S214507D40019AC2F8F83B019BD3F8F82B009B596870
S214507D50009B1B680B4403F01F01009B9B681B0392
S214507D609BB21943009B1B699B0503F070730B4332
S214507D701A43019BC3F8F82B019BD3F8F02B0B4BFF
S214507D801340019AC2F8F03B019BD3F8F02B009BAE
S214507D90DB681904064B0B401A43019BC3F8F02BC3
S214507DA000BF02B0704700BFE00F3FFCFFFF00FC73
S214507DB00000FF0382B001900091009B00221A60E1
S214507DC0019BD3F8F83B03F01F02009B5A60019BBF
S214507DD0D3F8F83B1B0B03F00F02009B9A60019BF5
S214507DE0D3F8F83B9B0D03F00F02009B1A61019BE2
S214507DF0D3F8F03B1B0CC3F30902009BDA6000BFBC
S214507E0002B0704782B001900091019B1B6D5B0DD4
S214507E10C3F30902009BDA60019B1B6D9B0A03F0BB
S214507E203F02009B1A60019B1B6D5B0903F01F020B
S214507E30009B5A60019B1B6D03F01F02009B9A60CB
S214507E40019B1B6D1B0C03F01F02009B1A6100BFA9
S214507E5002B0704782B001900091019B5B681B0E88
S214507E60DAB2009BDA60019B5B6803F00702009B66
S214507E701A60019B5B68DB0C03F00702009B5A609C
S214507E80019B5B681B0C03F00702009B9A60019BEA
S214507E905B689B0D03F00302009B1A6100BF02B0A3
S214507EA0704782B001900091019BD3F8043C1B0DA3
S214507EB0C3F30902009BDA60019BD3F8043C9B0A8B
S214507EC003F01F02009B1A60019BD3F8043C5B0929
S214507ED003F00702009B5A60019BD3F8043C03F062
S214507EE00702009B9A60019BD3F8043C1B0C03F0DE
S214507EF00702009B1A6100BF02B0704782B0019023
S214507F00019B1B6DDB0FDBB2184602B0704782B088
S214507F100190019B5B6B03F40053002B14BF0123AD
S214507F200023DBB2184602B0704782B001900B4671
S214507F308DF80330019B5B6B23F400539DF80320B0
S214507F40002A02D04FF4005200E000221A43019B50
S214507F505A6300BF02B0704782B001900B468DF84E
S214507F600330019B1B6D23F000439DF80320002A2D
S214507F7002D04FF0004200E000221A43019B1A65DF
S214507F8000BF02B0704782B001900B468DF80330A8
S214507F90019B1B6823F400339DF80320002A01D070
S214507FA0002201E04FF400321A43019B1A6000BFD2
S214507FB002B0704782B00190019B1B6803F40063C7
S214507FC0002B14BF01230023DBB2184602B07047C3
S214507FD082B00190019B5B6803F00803002B14BF2E
S214507FE001230023DBB2184602B0704782B00190DE
S214507FF0019B0133DB009B080533184602B07047DF
S21450800084B00190009100238DF80F30009B1F2BF9
S21450801011D8019B9B6A0293019B1A6B029B1A40D4
S214508020009B03F01F0322FA03F3DBB203F00103B5
S2145080308DF80F3028E0009B3F2B11D8019B5B6AD0
S2145080400293019BDA6A029B1A40009B03F01F03BF
S21450805022FA03F3DBB203F001038DF80F3013E07E
S214508060009B5F2B10D8019BDB6E0293019B5A6FCF
S214508070029B1A40009B03F01F0322FA03F3DBB265
S21450808003F001038DF80F309DF80F30184604B0FA
S214508090704782B001900091019B009A1A6100BF10
S2145080A002B0704784B0039002910192039B029AEB
S2145080B002F50872019943F8221000BF04B07047C9
S2145080C082B001900B468DF80330019B5B6B23F416
S2145080D078029DF80330DB0403F478031A43019BBF
S2145080E05A6300BF02B0704782B001900091009B67
S2145080F0002B06D1019B1B6823F48032019B1A602B
S21450810005E0019B1B6843F48032019B1A6000BF58
S21450811002B0704782B00190019BD3F80C3CDB0F45
S214508120DBB2184602B0704782B001900B468DF80D
S21450813003309DF80330002B05D0019B4FF0704262
S214508140C3F8102C03E0019B0022C3F8102C00BF8C
S21450815002B0704782B001900091019BD3F8142C66
S214508160009BDBB203F01F03012101FA03F31A4010
S214508170009BDBB203F01F0322FA03F3DBB2184670
S21450818002B0704782B0019000910122009B9A4045
S214508190019BC3F8142C00BF02B0704782B0019008
S2145081A00091019BD3F8102C009BDBB203F01F0309
S2145081B0012101FA03F31A40009BDBB203F01F03C0
S2145081C022FA03F3DBB2184602B0704700B583B00C
S2145081D00190019804F05DFD0346002B0CD0019BE6
S2145081E04FF07842C3F8142C019B0022C3F8102C91
S2145081F0019B0022C3F80C2C019B0022C3F8042CD0
S214508200019B3F4AC3F8002C019B4FF00D12C3F858
S214508210FC2A019B0022C3F8EC2A019B0022C3F8DB
S214508220E82A019B0022C3F8E42A019B5B6B43F0CB
S2145082300052019B5A63019BD3F8E03A23F0004268
S214508240019BC3F8E02A019B2E4AC3F8E02A019B03
S214508250D3F8E03A43F00042019BC3F8E02A019B72
S2145082605B6B23F00052019B5A63019803F08BF925
S2145082700346402B06D9019B4FF0FF325A67019BAD
S2145082800022DA66019803F07EF90346202B06D9C1
S214508290019B4FF0FF32DA62019B00225A62019B2B
S2145082A04FF0FF321A63019B00229A62019B002214
S2145082B01A65019B4FF480125A63019B124A1A6248
S2145082C0019B0022DA61019B00229A60019B0022EA
S2145082D05A60019B0022C3F8F02B019B0022C3F882
S2145082E0F42B019B0022C3F8F82B019B0022C3F805
S2145082F0FC2B019B054A1A6000BF03B05DF804FBD7
S2145083000041008080000C0006B003000F0090D89B
S21450831000B585B00190009100230393009B1B7A13
S214508320002B06D0009B5B681946019803F03EFB75
S2145083300390039B002B0DD1009B1B7E002B09D076
S214508340009BD968009B1A69009B5B69019804F0F2
S214508350C3FC0390039B184605B05DF804FB00B5BC
S21450836085B00190009100230393009BDB69022B9C
S21450837003D000210198FFF706FE00990198FFF7F9
S214508380C7FF0390039B002B06D0019803F01CF9FF
S214508390019803F0DAF90BE0009B24331946019854
S2145083A003F048FB009B1B681946019804F052F8EE
S2145083B0039B184605B05DF804FB00B587B003462E
S2145083C0029101928DF80F30002305930298FFF723
S2145083D09BFA0346002B0AD0029803F0F5F8059056
S2145083E0059B002B03D1029803F0AFF90590059B2F
S2145083F0002B30D1029B1B6823F00042029B1A6070
S214508400029803F03BFA0590059B002B06D0029885
S21450841003F0DAF8029803F098F91CE00298FFF798
S2145084207DFA019B93F83010019B93F832301A4630
S2145084300298FFF794FA019B1B6A1946029804F0BB
S214508440E3FD9DF80F30184604F04EFE0199029851
S214508450FFF785FF0590059B184607B05DF804FBAF
S21450846000B583B001900091009B93F830301946C8
S2145084700198FFF771FD009B93F83130002B17D011
S214508480019B5B6B43F40052019B5A63009B343351
S21450849019460198FFF7E6FB009B93F83030002B07
S2145084A024D0009B483319460198FFF741FC1DE045
S2145084B0019B5B6B23F40052019B5A63009B93F81D
S2145084C03030002B0CD0009B343319460198FFF700
S2145084D09BFB009B483319460198FFF735FB05E098
S2145084E0009B343319460198FFF762FB00BF03B078
S2145084F05DF804FB00B585B003468DF807309DF84F
S2145085000730134A52F8233003939DF80730114A28
S21450851052F823300293029B93F8083683F00103F7
S214508520DBB2002B07D0029B012283F808260021DD
S2145085300398FFF7F9FD029B0022C3F80026029B22
S2145085400022C3F8042600BF05B05DF804FB00BF48
S214508550802D5100E401402000B587B003460091BD
S2145085608DF807309DF807301D4A52F82330049393
S2145085709DF807301B4A52F8233003930023059387
S214508580039BD3F80436012B02D10223059322E035
S214508590039B0122C3F80426039B009AC3F80026C7
S2145085A0039BD3F82036002B0CD1039B002283F874
S2145085B00826039B93F82C36002B03D001210498F1
S2145085C0FFF7B2FD039BD3F82036012B03D1039B54
S2145085D0012283F80826059B184607B05DF804FB71
S2145085E0802D5100E401402000B58BB00346009129
S2145085F08DF80730002309939DF80730394A52F812
S214508600233006939DF80730374A52F823300593A7
S2145086100023039300230893009B4FF47A7202FBC7
S21450862003F30021184605F050F9049000230793F1
S214508630002005F014F9034603932AE0069BD3F86E
S2145086402036012B15D11F2307930FE00799059865
S214508650FFF780FD0346002B05D09DF8073007999D
S214508660184600F079FC079B013B0793079B1B2B92
S214508670ECD803AB0021184605F003F90246089BD8
S21450868013440893089A049B9A4202D303230993EF
S21450869004E0069BD3F80436012BCFD0099B032B5E
S2145086A008D1069BD3F82036012B03D0002105981D
S2145086B0FFF73AFD069BD3F80436002B06D0012B65
S2145086C007D1069B0022C3F8042605E00023099331
S2145086D002E00123099300BF099B18460BB05DF8D2
S2145086E004FB00BFE4014020802D510000B58DB042
S2145086F0034602918DF80F3000230B939DF80F30F0
S214508700464A52F8233008939DF80F30444A52F8A0
S214508710233007930023059300230A93029B4FF4BC
S2145087207A7202FB03F30021184605F0CEF8069045
S21450873000230993002005F092F8034605932AE09B
S214508740089BD3F82036012B15D1072309930FE049
S21450875009990798FFF774F90346002B05D09DF842
S2145087600F300999184600F0B1FA099B013B09935E
S214508770099B042BECD805AB0021184605F081F870
S21450878002460A9B13440A930A9A069B9A4202D3BD
S21450879003230B9303E0089B5B68012BD0D00B9B05
S2145087A0032B25D1089BD3F82036012B20D0089BCD
S2145087B093F82C369DF80F10009300230522079847
S2145087C003F009FA089B93F82C369DF80F10009387
S2145087D000230622079803F0FEF9089B93F82C36E0
S2145087E09DF80F10009300230722079803F0F3F923
S2145087F0089B5B68002B05D0012B06D1089B0022F6
S2145088005A6005E000230B9302E001230B9300BF50
S2145088100B9B18460DB05DF804FB00BFE4014020EA
S214508820802D510084B000921A4603468DF80730CA
S2145088300B468DF8063013468DF80530002303930B
S2145088409DF80730154A52F8233002939DF80630AB
S214508850029A1B01134404331B68002B02D00223D8
S214508860039317E09DF80630029A1B011344043315
S21450887001221A609DF80630029A1B011344009A92
S2145088801A609DF80630029A1B01134408339DF86F
S21450889005201A70039B184604B07047E401402028
S2145088A000B58FB00492039303468DF817300B46ED
S2145088B08DF8163000230D939DF81730384A52F82D
S2145088C023300C939DF81730364A52F823300B93CA
S2145088D000230A939DF816300C9A1B011344043358
S2145088E01B68002B02D002230D9353E09DF81630E0
S2145088F019460B98FFF783F89DF816300C9A1B0113
S2145089001344043302221A609DF816300C9A1B0149
S21450891013440C3300221A609DF81630049A117BCB
S2145089200C9A1B01134408330A461A709DF81630E9
S214508930049AD17A0C9A1B01134409330A461A70CA
S214508940049B5B680893049B1B680793049B1B7AE5
S2145089508DF82430049B5B7A8DF82530049B9B7AE7
S2145089608DF82630049BDB7A002B02D01C2306930E
S21450897001E00C2306939DF8163019460B9802F02A
S21450898093FD0A9006A900230093109B039A0A9819
S21450899003F04EFC0D9B18460FB05DF804FB00BF6D
S2145089A0E4014020802D510000B589B00346029165
S2145089B08DF80F300023069300230593002307936A
S2145089C09DF80F30264A52F8233006939DF80F3004
S2145089D0244A52F823300593059B5B68002B02D03F
S2145089E00223079336E0059B01225A60059BD3F875
S2145089F02036012B02D1059B01221A72059B029A42
S214508A001A60059BD3F82036002B23D1059B0022F5
S214508A101A72059B93F82C369DF80F10009301237D
S214508A200622069803F0D7F8059B93F82C369DF847
S214508A300F10009301230722069803F0CCF8059BED
S214508A4093F82C369DF80F100093012305220698B4
S214508A5003F0C1F8079B184609B05DF804FB00BF49
S214508A60802D5100E401402010B59CB00346029181
S214508A708DF80F309DF80F30474A52F823301B932D
S214508A809DF80F30454A52F823301A9300238DF83C
S214508A9067301A9A029B1B0113441B68002B05D1A2
S214508AA01A9A029B1B01134405AA1A6002991B9836
S214508AB003F082F81A9A029B1B0113441B681A464D
S214508AC002991B9803F00CFB02991B98FEF797FF30
S214508AD01B98FEF78DFF1A9A029B1B011344043312
S214508AE000221A601A9A029B1B01134408331B7803
S214508AF08DF867301A9BD3F81036002B08D01A9B87
S214508B00D3F810469DF80F001A9B029A0021A047F2
S214508B101A9A029B1B01134404331B68002B1ED168
S214508B201A9A029B1B01134408331B7883F00103E7
S214508B30DBB2002B13D01A9A029B1B011344083346
S214508B4001221A701A9B93F82C369DF80F1000933A
S214508B500023029A1B9803F03EF800BF19E09DF8D8
S214508B60673083F00103DBB2002B12D01A9A029BB7
S214508B701B01134408331B78002B0AD01A9B93F81A
S214508B802C369DF80F1000930023029A1B9803F082
S214508B9022F800BF1CB010BD802D5100E4014020CB
S214508BA010B59AB0034602918DF80F309DF80F30ED
S214508BB0444A52F8233019939DF80F30424A52F8DF
S214508BC023301893189A029B1B01134409331B78C1
S214508BD0002B1ED00299199802F0EEFF04AB1A46ED
